:1000000000180020C1000000D5200000A120000041
:10001000A1200000A1200000A1200000A1200000DC
:10002000A1200000A1200000A1200000D520000098
:10003000D5200000A1200000D52000009120000064
:10004000D5200000D5200000D5200000D5200000DC
:10005000D5200000D5200000D5200000D5200000CC
:100060004D120000D5200000D5200000D520000052
:100070008D33000019380000813D0000D5200000BC
:10008000D5200000D5200000D5200000D52000009C
:10009000D5200000D5200000D5200000D52000008C
:1000A00085260000D5200000D5200000D5200000C6
:1000B000D5200000D5200000D5200000D52000006C
:1000C00038B502F00BF8454A454B1A60454A464B95
:1000D0001A60464A464B1A60464B0822197811426C
:1000E00002D019780A431A70434B2A221A7000234F
:1000F000424A43499A188A4204D24249C9580433B1
:100100001160F5E7404B41491A1F181D00238A4230
:1001100002D21360031CF6E73D493E4A5958101CB1
:1001200099500433C02BF7D100239A083A49920022
:10013000521803211940C9001568FF248C40A543BB
:100140002C1C80258D40291C214301331160202B5C
:10015000EBD1324B8A221860314B1A70314B24227A
:100160005A70A0221A709A799107FCD59A79D5060F
:10017000FCD498790C212B4A01400829F9D103219C
:100180001171402151719A799106FCD59A795506E1
:10019000FCD52549254A1160224A20211170997900
:1001A0000C220A400C2AFAD1214A224B1A60224A18
:1001B000224B1A60224B00221A60224B07221A603F
:1001C000214A224B1A6062B602F036F905F06AF84D
:1001D00001F08AFF02F009FEFEE7C046300004F09D
:1001E00034800440823F0000388004400100000F4A
:1001F0003C80044002D0074000E00740C0000020DF
:10020000A80300205C590000AC030020680800200F
:100210000000000000F9FF1F00E400E008ED00E02E
:100220000050064000400640000001104480044099
:10023000C0000505048004407FBB000014E000E01E
:1002400018E000E010E000E00000202020ED00E0D9
:10025000FFFFFFFFFFFFFFFFFFFFFFFFFFFFFFFFAE
:10026000FFFFFFFFFFFFFFFFFFFFFFFFFFFFFFFF9E
:10027000FFFFFFFFFFFFFFFFFFFFFFFFFFFFFFFF8E
:10028000FFFFFFFFFFFFFFFFFFFFFFFFFFFFFFFF7E
:10029000FFFFFFFFFFFFFFFFFFFFFFFFFFFFFFFF6E
:1002A000FFFFFFFFFFFFFFFFFFFFFFFFFFFFFFFF5E
:1002B000FFFFFFFFFFFFFFFFFFFFFFFFFFFFFFFF4E
:1002C000FFFFFFFFFFFFFFFFFFFFFFFFFFFFFFFF3E
:1002D000FFFFFFFFFFFFFFFFFFFFFFFFFFFFFFFF2E
:1002E000FFFFFFFFFFFFFFFFFFFFFFFFFFFFFFFF1E
:1002F000FFFFFFFFFFFFFFFFFFFFFFFFFFFFFFFF0E
:10030000FFFFFFFFFFFFFFFFFFFFFFFFFFFFFFFFFD
:10031000FFFFFFFFFFFFFFFFFFFFFFFFFFFFFFFFED
:10032000FFFFFFFFFFFFFFFFFFFFFFFFFFFFFFFFDD
:10033000FFFFFFFFFFFFFFFFFFFFFFFFFFFFFFFFCD
:10034000FFFFFFFFFFFFFFFFFFFFFFFFFFFFFFFFBD
:10035000FFFFFFFFFFFFFFFFFFFFFFFFFFFFFFFFAD
:10036000FFFFFFFFFFFFFFFFFFFFFFFFFFFFFFFF9D
:10037000FFFFFFFFFFFFFFFFFFFFFFFFFFFFFFFF8D
:10038000FFFFFFFFFFFFFFFFFFFFFFFFFFFFFFFF7D
:10039000FFFFFFFFFFFFFFFFFFFFFFFFFFFFFFFF6D
:1003A000FFFFFFFFFFFFFFFFFFFFFFFFFFFFFFFF5D
:1003B000FFFFFFFFFFFFFFFFFFFFFFFFFFFFFFFF4D
:1003C000FFFFFFFFFFFFFFFFFFFFFFFFFFFFFFFF3D
:1003D000FFFFFFFFFFFFFFFFFFFFFFFFFFFFFFFF2D
:1003E000FFFFFFFFFFFFFFFFFFFFFFFFFFFFFFFF1D
:1003F000FFFFFFFFFFFFFFFFFFFFFFFFFFFFFFFF0D
:10040000FFFFFFFFFFFFFFFFFFFFFFFFFEFFFFFFFD
:1004100010B5064C2378002B07D1054B002B02D0DA
:10042000044800E000BF0123237010BDA803002092
:10043000000000005C59000008B5084B002B03D0F9
:100440000748084900E000BF07480368002B03D0B5
:10045000064B002B00D0984708BDC04600000000A6
:100460005C590000AC030020A8030020000000003D
:10047000014B03607047C046D85400007047FFFF2F
:10048000014B03607047C046D854000010B5034BC1
:10049000041C036002F0B1FC201C10BDD854000005
:1004A00010B5034B041C036002F0A7FC201C10BD18
:1004B000D854000010B5041C006804F023FF201C71
:1004C00010BD022008B5011C01F078FE03200221B6
:1004D00001F074FE0020022101F070FE01200221D3
:1004E00001F06CFE0420022101F068FE05200221CB
:1004F00001F064FE0620022101F060FE07200221C7
:1005000001F05CFE0820022101F058FE09200221C2
:1005100001F054FE0D20022101F050FE0E200221B8
:1005200001F04CFE0C20022101F048FE0B200221BC
:1005300001F044FE1020012101F040FE11200121B4
:1005400001F03CFE1020002101F006FE11200121E7
:1005500001F002FE1420012101F030FE16200121DD
:1005600001F02CFE08BDFFFF10B5534C201C01F01C
:10057000B3F9002804D0201C01F0CCF94F4B1870BF
:100580004F4C201C01F0A8F9002804D0201C01F0D9
:10059000C1F94A4B58704B4C201C01F09DF90028C2
:1005A00004D0201C01F0B6F9444B9870464C201C36
:1005B00001F092F9002804D0201C01F0ABF93F4B68
:1005C000D870424C201C01F087F9002804D0201C70
:1005D00001F0A0F9394B18713D4C201C01F07CF959
:1005E000002804D0201C01F095F9344B5871394C87
:1005F000201C01F071F9002804D0201C01F08AF9B8
:100600002E4B9871344C201C01F066F9002804D060
:10061000201C01F07FF9294BD871304C201C01F0CF
:100620005BF9002804D0201C01F074F9234B1872E8
:100630002B4C201C01F050F9002804D0201C01F0A4
:1006400069F91E4B5872274C201C01F045F900280F
:1006500004D0201C01F05EF9184B9872224C201C2B
:1006600001F03AF9002804D0201C01F053F9134B93
:10067000D8721E4C201C01F02FF9002804D0201C39
:1006800001F048F90D4B1873194C201C01F024F9A6
:10069000002804D0201C01F03DF9084B5873154C7C
:1006A000201C01F019F9002804D0201C01F032F9B7
:1006B000024B987310BDC046C803002024050020DB
:1006C00058050020F8030020D8030020D0040020A3
:1006D000E0040020F004002000050020B404002005
:1006E0003405002010050020E803002068050020E4
:1006F000A00400204405002038B504F00FFD0D498A
:1007000004F068F80C49041C04F048FAFE2189053D
:1007100003F0F4FE0949051C201C04F03FFA011CFB
:10072000281C04F057F8064904F038FA03F0CEFE0E
:1007300080B238BD00009B438BFD253EF775203EFF
:100740000000C84210B50A240121102001F004FD68
:10075000322001F057FE1020002101F0FDFC013C89
:10076000322001F04FFE002CEED110BD114B13B51D
:100770000022985E104B0024195F104B00241A5F72
:100780000F4B0093002302F025FB0A3080B202B227
:100790000C4B002A01DC188001E000221A80FFF7D0
:1007A000D1FFFFF7E1FE042001F0F6FC0028FAD0AB
:1007B00013BDC04622050020C4040020C60400204A
:1007C0000080FFFF5605002070B50269C568836888
:1007D0000468954202D20135C56004E09D00655968
:1007E0004668751B45609D0061514468013361187E
:1007F0004160934200D30023836070BD38B5C46864
:10080000002C0BD0406804F089FC051C201C04F06F
:10081000E1FC011C281C03F0DDFF00E0002038BDD6
:10082000F0B5D04E8FB03378CF4CD04D002B17D0D1
:10083000A878CF4BEA78CF4958434A438218687862
:1008400012B24343287841435B181BB2201C12218B
:1008500001F0D6F800230093201C191C1A1C05E097
:10086000E87829786A78AB780090201C01F0ABF822
:100870003378002B07D06B78002B0CD06B7B002BD0
:1008800009D0002306E02B78002B04D06B7B002BD3
:1008900001D0012333702A79201C0121002A00D0C5
:1008A0000A1C01F041F86A79201C0221002A00D0BC
:1008B000012201F039F8AA79201C0321002A00D076
:1008C000012201F031F8EA79201C0421002A00D02D
:1008D000012201F029F8AA7A201C0721002A00D061
:1008E000012201F021F8EA7A201C0821002A00D018
:1008F000012201F019F82B79002B04D02B7A002B60
:1009000001D0FFF733FF2A7A201C0521002A00D0EE
:10091000012201F009F86A7A201C0621002A00D081
:10092000012201F001F82A7B6B7B002A07D0002B03
:1009300002D0201C0B2106E0201C092103E0002B23
:1009400003D0201C0A2101220FE0AF7B002FF0D141
:10095000201C0B213A1C00F0E7FF201C09213A1C47
:1009600000F0E2FF201C0A213A1C00F0DDFF824B60
:100970001B78002B4DD03378002B4AD17F4805A936
:1009800000F044FF2B797E4E7E4D002B14D00021C9
:10099000685E04F0C3FB0A99071C04F0FFF880228C
:1009A0001206801830600B99381C04F0F7F8802389
:1009B0001B06C018744B1860734B28881B680B9D6E
:1009C0000293724B36681A68714B0A9F1B68039535
:1009D0009A421ED900B204F0A1FB051C291C381C48
:1009E00004F0DCF8011C301C03F088FD04F076FBF9
:1009F000291C06B2039804F0D1F8011C029803F0F8
:100A00007DFD04F06BFB122103B2321C201C00F0B0
:100A1000F7FF604B1B78002B00D106E10F2001F09F
:100A2000ABF95D4A041C0027D35F161CC31A191CBE
:100A300009315A4D122902D94B33962B03D9281C60
:100A4000211CFFF7C1FE281C3480FFF7D7FE544B52
:100A50004E4E1A6831681F1C914200D8BBE0514BC2
:100A60001A88002A03D050490A8000221A804F4A6F
:100A700033680021525ED3183B6004F02FFB00B2B4
:100A8000FFF73AFE4A4C4B4D80B22D88208004B2CD
:100A9000221C29B2323203950290474D474B8A42BD
:100AA0003FDA00202A5E32208018844239DD01209E
:100AB0001870434B0025585FC30F1B185B10009044
:100AC000201C02F087F93F4D00B200216B5EE31A53
:100AD000834219DB0022131C2348132100F090FFEE
:100AE0003368FA229200334C9B183B602388304FC6
:100AF0002B803B802C4B1A88002A00D19EE029498C
:100B00000A8000221A8099E0029F2F80294D00233D
:100B1000EB5E323B9C425EDA3268FA27BF00D219A4
:100B200014E000202A5E3232944212DC01221A7054
:100B30000D480022244B132100F062FF2B881C4C2F
:100B4000FA252380114BAD001A685219104B1A6018
:100B500041E08C423ADD0398154F00221A7038802C
:100B600039E0C046540500201C0400202405002064
:100B7000D08AFFFF30750000CB0000200804002061
:100B800078050020CC0000207C050020F80500201E
:100B9000B0040020CA000020C80400208C040020FB
:100BA000C40300202005002056050020D0000020AE
:100BB00022050020C4040020C6040020CA0400202E
:100BC000C8000020CC0400200080FFFF1A78002A13
:100BD00001D000221A701A4B1A4D1C781A491B4A70
:100BE0001B4B1C4E002C10D00024085F0027D15F47
:100BF00000241A5F184B0027DB5F009602F0EAF82A
:100C0000132103B20022281C0DE00027C85F002733
:100C1000D15F0027DA5F231C009602F0DBF8132176
:100C200003B2221C281C00F0EBFE064C1420617F4E
:100C300001F008FB217F162001F004FB0FB0F0BD8E
:100C4000CA0400201C04002022050020C404002047
:100C5000C60400200080FFFF5605002010B5FFF7F6
:100C600083FCFFF7DDFD054C201C00F057FF201C26
:100C700000F0D8FE201C00F0A7FF10BD1C040020CF
:100C800070B500240E4B1B689C4211DA0F2001F056
:100C900073F80C4E051C0022B35EC31A0933122BE5
:100CA00003D80948291CFFF78FFD35800134E9E797
:100CB0000548FFF7A3FD04F011FA80B270BDC046ED
:100CC000C4000020C80400208C040020F8B5FFF701
:100CD00039FD244E244D3388244C01332B80201CB5
:100CE000FFF78CFD04F0FAF91E4A0023D35E63334C
:100CF00083422ADB0F2001F03FF81D4F061C002223
:100D0000BB5EC31A0933122B03D8201C311CFFF71A
:100D10005BFD3E80E3E70F2001F02EF8144F061C28
:100D20000022BB5EC31A0933122B03D8201C311CCE
:100D3000FFF74AFD201C3E80FFF760FD04F0CEF96E
:100D40000022AB5E984200DD2880064A0023D35E75
:100D50009842E0DC2A880021064800F05EFFFFF799
:100D6000F1FCF8BDD2000020CE0000208C04002051
:100D7000C8040020EC05002030B58BB0FFF7A1FBC4
:100D8000FA20400001F03EFB082001F005FA00289F
:100D90000AD0092001F000FA4D4C002834D14D4B07
:100DA000012220701A702FE0041C211C142001F075
:100DB00049FA0A2001F026FB013480235B009C42A3
:100DC000F3D1FF24211C142001F03CFA013C0A203D
:100DD00001F018FB002CF5D1211C162001F032FA8D
:100DE0000A2001F00FFB013480235B009C42F3D109
:100DF000FF24211C162001F025FA013C0A2001F0F5
:100E000001FB002CF5D1C4E72378002B07D0324832
:100E100000F066FC002802D12070FFF793FC2378D5
:100E2000002B24D02C4C0021201C00F087FCFA2041
:100E3000800001F0E7FA01A9201C00F0E7FC274B35
:100E40000022985E04F06AF90699041C03F0A6FEDD
:100E500080231B06C018224B07991860201C03F042
:100E60009DFE802212061F4B8018186003E0FA20B6
:100E7000800001F0C7FAFFF703FF1B4B1B4A1978EC
:100E80001080141C1D1C002905D01948002100F0F9
:100E9000BFFE184B1880042001F07EF9002801D114
:100EA000FFF714FF2B78002B0FD00023E05EFFF735
:100EB00023FC114B84B21C800E4B0022985EFFF77E
:100EC0001BFC0E4B18800E4B1C800BB030BDC04677
:100ED000CB0000205405002008040020CC00002096
:100EE000780500207C050020CA000020D2000020E8
:100EF000EC050020CE000020C4040020C604002021
:100F0000CC0400203A4B70B51E683A4C0025B00066
:100F10002661E56004F0ECF9A560031C20606560C3
:100F2000201CB54204D0AA00002199500135F8E7F1
:100F3000314D32492A1C04F09DF9314C3149201CB5
:100F400000F058FB2A1C201C2F4904F093F90221C1
:100F500014222E4800F094FC032114222C4800F0A7
:100F60008FFC002114222B4800F08AFC012114225E
:100F7000294800F085FC04211422284800F080FC58
:100F800005211422264800F07BFC06211422254866
:100F900000F076FC07211422234800F071FC0821A0
:100FA0001422224800F06CFC09211422204800F091
:100FB00067FC0D2114221F4800F062FC0E21142250
:100FC0001D4800F05DFC0C2114221C4800F058FC68
:100FD0000B2114221A4800F053FC0A21142219484C
:100FE00000F04EFC01211022174800F041FD70BDB9
:100FF000C40000208C040020C0000020B5040000C4
:10100000080400203930000081040000C8030020DB
:1010100058050020F8030020D8030020D004002049
:10102000E0040020F004002000050020B4040020AB
:101030003405002010050020E8030020680500208A
:10104000A0040020440500201C040020044BD87894
:10105000044BC0B21A68904200D018607047C04676
:1010600000600640D800002008B5FFF7EFFF02231C
:101070001842FAD0014AD37008BDC046006006404D
:1010800010B50C4B041C1B78002B04D10A4A181C09
:101090001278002A0CD0094A1378202B03D9012397
:1010A0002371002004E0581C1070054A0120D1541F
:1010B00010BDC046E6050020A9050020E705002078
:1010C000880500207047FFFF024B1878024B1B7801
:1010D000C01A7047E5050020E4050020064A0749CC
:1010E00013780978994204D9591C1170044AD05CCC
:1010F00001E0012040427047E4050020E5050020A2
:10110000AA050020054B064A1B7812789A4202D99C
:10111000044AD05C01E0012040427047E405002011
:10112000E5050020AA050020F8B50E4B071C18782D
:10113000141C002803D10C4B1B78002B10D00B4E35
:10114000212335785B1B9C4202D901223A711C1C79
:101150000748221C40192D1904F0DEF83570201CB8
:10116000F8BDC046E6050020A9050020E7050020DF
:1011700088050020002303710373034BFA229200B9
:101180000833826003607047F0540000094B1B680D
:101190005A060ED5084A094B914201D81F2205E094
:1011A000074A914201D8122200E002225A7002221C
:1011B0009A717047348004407F1A06000060064030
:1011C0003F420F00174A002310B51370164A4024FF
:1011D00011682143154C1160A370154B1B78122B1D
:1011E00003D199229200134B04E0112B03D19922D1
:1011F000114B92001A60114B1B78132B03D19922CB
:1012000092000F4B04E0102B03D199220D4B92005A
:101210001A600D49FFF7BAFF202363718023A37082
:1012200010BDC046A905002034800440006006407F
:10123000D40000200CA0044004A00440DC000020E6
:1012400008A0044000A00440A086010038B53C4C32
:101250001023E578EDB21D4203D140222A4004D18B
:1012600027E0E3706B06F8D468E004231D40354B9B
:1012700017D000221A70344B344D1B682A709342E9
:1012800000D098472A78324B002A02D101212970D8
:101290001A70D022A2701B78012223712D4B1A7074
:1012A0004AE001221A702C4B1D70C023A3702379D1
:1012B00042E0A3796021DBB2194060290CD12021E2
:1012C0008B431F498B71254B1B68002B04D024498D
:1012D0000A70214A10789847A1781022184B0A40CA
:1012E00016D0012215400FD11A4918480A78007803
:1012F000904205D9501C087015498A5C1A7100E0AB
:101300001D71D023A37017E0C0229A701B7913E0DF
:1013100014490A709A7920210A439A710E4A197960
:101320001378C9B21F2B07D806480078002803D0CD
:10133000581C10700C4AD1540223E37038BDC046CB
:101340000060064080050020CC050020E705002055
:1013500088050020E8050020E50500208405002020
:10136000E4050020D0050020AA050020044B054A12
:101370004900197001231370034A13707047C04667
:1013800088050020E6050020E7050020F8B5284C78
:101390001223E370A3780E1C9A0601D5B42313E040
:1013A000244F3D68FFF752FE2023184009D03B68C8
:1013B0005B1B0F2BF6D90023A3708023A37004209E
:1013C00034E01D4B1870B023A370FFF73FFE830677
:1013D000FBD50025194B1B78AB421FD9184B5B5D21
:1013E0002371FFF733FE820701D48306F9D4022369
:1013F000E3700F4FFFF72AFEC20601D4830603D421
:101400008023BB7004200AE0C20704D56B426B4105
:101410000320C01A05E00135EDB2DBE70020002E05
:1014200001D08023A370074B00221A70F8BDC0467C
:1014300000600640F8050020A9050020E70500200F
:1014400088050020E6050020F8B51F1C314B161C4E
:1014500000221A70304B314D1A701222EA70AA78AD
:101460000C1C930601D5B42307E0FFF7EFFD202302
:101470001840FAD12A4B1870B023AB7064000123D6
:101480002343DBB22B71FFF7EFFDFFF7DFFD1123E5
:10149000224C184003D08023A370002038E0002E97
:1014A00005D1A023002F00D08023AB7030E0A8230B
:1014B000012E00D0A023A3702B790024012E11D07F
:1014C000013EF6B2FFF7D0FD012E01D1A823AB708B
:1014D0001F2C05D82979134A631C1155DCB2EDE79E
:1014E0002B79EBE7FFF7C0FDB022261C0B4BAA704F
:1014F0001F2C05D81A790B4B0134E4B29A5500E041
:101500001B79002F01D08023AB70034B201C1C7073
:10151000F8BDC046E4050020E50500200060064057
:10152000A9050020AA05002008B5C9B2D2B201233E
:10153000FFF78AFF08BD08B5C9B2FFF717FF08BD5E
:1015400008B50121FFF722FF08BDFFFF08B50248DB
:10155000FFF710FE08BDC046D4050020F0B585B0E9
:10156000071C01910292039307250024381C0021D7
:10157000012600F0F1FD039B311CA940194002989F
:1015800000F0EAFD381C311C640000F0E5FD019814
:10159000E4B200F001FE002800D03443013DE5D262
:1015A000201C05B0F0BDFFFF38B528220C1C051C1F
:1015B000081C002103F0B9FE201C0A490B2203F08D
:1015C00072FF0023E372AD686362074B0122A361DF
:1015D000064BE260E361064B0622256162612362ED
:1015E00038BDC046105500000AE81CC30AE81C4379
:1015F000A3AF203D044B81600833036000230373D5
:10160000012343747047C0461855000070B50E1C86
:10161000417C041C151C002910D0124C5321201CA5
:10162000FFF789FF311C201CFFF72AFD201C291C15
:10163000FFF726FD201CFFF783FF12E0007C00F07F
:101640008BFDE17BA27B331C607BFFF787FFE17B97
:10165000607BA27B2B1CFFF781FF207C012100F027
:101660007BFD70BDD405002038B50D1C417C041CE9
:10167000002915D0164C5321201CFFF75CFF291CB4
:10168000201CFFF7FDFC201CFFF75AFF532101220D
:10169000201CFFF749FF201CFFF720FDC0B215E01A
:1016A000007C00F059FD80232B43E17BA27B607B13
:1016B000FFF754FFE17BA27BFF23607BFFF74EFF28
:1016C0000121051C207C00F047FD281C38BDC046C8
:1016D000D405002008B50021FFF7C6FF08BDFFFFB5
:1016E00038B5457C041C002D03D01348FFF76AFD74
:1016F00013E0007C012100F061FD607B012100F01E
:101700005DFD607B012100F027FDA07B012100F041
:1017100055FDE07B291C00F051FD201CFFF7DAFF8E
:101720000023E52805D1201C2D210822FFF76EFF9C
:101730000123181C38BDC046D405002038B50D1C47
:101740003121041CFFF790FFF023082218402A43A0
:1017500002433121201CFFF759FF257338BDFFFFDD
:1017600070B50D1C417C041C00291CD01E4C53215B
:10177000201CFFF7E0FE291C201CFFF781FC201C29
:10178000FFF7DEFE53210222201CFFF7CDFE201CB6
:10179000FFF7A4FC051C201CFFF7A0FCC0B2000250
:1017A000EDB228431EE0007C00F0D6FCC0232B43A2
:1017B000E17BA27B607BFFF7D1FEE17BA27BFF2375
:1017C000607BFFF7CBFEE17B061CA27BFF23607BE7
:1017D000FFF7C4FE05022E43207CB5B2012100F0C4
:1017E000BBFC281C00B270BDD405002008B5322116
:1017F000FFF7B6FF08BD08B53421FFF7B1FF08BDFC
:1018000008B53621FFF7ACFF08BDFFFF70B52426F1
:10181000321C0C1C051C081C002103F086FDAB6863
:1018200026606360012600232361A660281CFFF761
:10183000DDFF03F073FC104903F0B0F90F4903F02A
:10184000ADF96061281CFFF7D6FF03F067FC0A4979
:1018500003F0A4F9094903F0A1F9A061281CFFF7DE
:10186000CFFF03F05BFC044903F098F9034903F050
:1018700095F9E061301C70BD6F12833B0AE81C4192
:1018800038B500238360064B041C1B68426003606C
:10189000081C0D1C00F080FC20736573201C38BDF3
:1018A000F805002038B5041C407B00F075FC237B54
:1018B00083420CD0074A236811686568C91A00235F
:1018C000A94205D3126820732260012300E000239F
:1018D000181C38BDF805002038B5041CFFF7E2FFDE
:1018E000002802D00023A3600BE0A268002A0BD0DE
:1018F000074B25681968491B914205D31B68A060F6
:1019000023600120A07301E00023A37338BDC0460B
:10191000F8050020827B031C0020824203D0187B44
:1019200043425841C0B27047012902D1C378102107
:1019300042E0022902D1C37820213DE0032902D1EF
:10194000C378402138E0042909D1C378002A03D0A4
:1019500080225242134334E07F22134031E00529B4
:1019600002D1C378012127E0062902D1C3780221E0
:1019700022E0072901D1402112E0082909D183780A
:10198000002A03D08022524213430FE07F221340EB
:101990000CE0092901D1102102E00A2908D12021F7
:1019A0008378002A01D00B4300E08B43837009E069
:1019B0000B2907D1C3780421002A01D00B4300E092
:1019C0008B43C370704770B504AC257884780F26BC
:1019D000B443002901D0012202E0002A01D00222F2
:1019E00014438470002B04D0002D08D18378042286
:1019F00003E0002D03D0837808221343837070BD69
:101A0000122906D18271037212121B12C271437223
:101A100007E0132905D18272037312121B12C272DE
:101A20004373704710B50549041C01F0A3F9022364
:101A30000022E25401330D2BFAD110BD28320000F0
:101A4000F8B5071C061C0D1C141C643765360129EB
:101A500009D1101C00F0B2FB201C002100F07CFB1F
:101A60003D70347002E000233B703370F8BDFFFF1F
:101A7000F0B5142585B0041C0291039200212A1CA4
:101A800003F053FC0A26657001220025201CA27079
:101A9000291C321C6561A561257765771E3003F02E
:101AA00044FC1D4F201C391C321C283003F034FC30
:101AB000231C3233291C321C181C019303F035FC03
:101AC000019A0123201C1370B919321C3C3003F019
:101AD00023FC201C391C321C1431463003F01CFC42
:101AE000391C201C321C1E31503003F015FC201C08
:101AF000291C321C5A3003F018FC231C64331D705F
:101B00005D709D70201CA56602991D72039AFFF7F7
:101B100097FF201C05B0F0BD3855000038B5031CF8
:101B200064331B78012B1AD10D4B816E1A68041C8B
:101B3000531A6C34962B0DD92378051CC1185831D3
:101B400089786635013329708266237065300078A4
:101B500000F002FB23780A2B01D10023237038BD4B
:101B6000F805002010B5041C5A30012901D00A29BB
:101B700002D1211C283119E004230A1C9A43022AAD
:101B800002D1211C323111E0032A02D1211C3C3147
:101B90000CE0042901D0082902D1211C463105E0BE
:101BA000052901D0092908D1211C50310A2203F04E
:101BB000B3FB6C340023237004E0211C1E310A2285
:101BC00003F0AAFB10BDFFFF10B5041C01F0C6F81E
:101BD000002819DD201C14300C4901F091F8A28A6C
:101BE00080231B019A4205D1E37D01202377237EC8
:101BF00063770AE0237D0320012B06D1201CA17D01
:101C0000FFF7B0FF022000E0002010BD28320000E6
:101C100008B5081C00F024FA08BD08B5081C111C02
:101C200000F02AFA012008BD014B64221A607047B7
:101C3000EC050020F0B572B61B4B1A78002A30D0A4
:101C40001A4A10681A4A16681A4A301815681A4A49
:101C500040191468194A00191168194A4018126885
:101C60001849801880B2184A4008104380B20860B2
:101C7000164817490968076816487918066816480B
:101C80008919056815484919046815480919006833
:101C9000091889B249080A43124992B20A6000221F
:101CA0001A7062B6F0BDC046F105002038B003409E
:101CB0003CB0034040B0034044B0034048B0034050
:101CC0004CB003402CB003400080FFFF5CB00340E9
:101CD00058B0034060B0034064B0034068B00340B4
:101CE0006CB0034030B003401B4B1C4A19781C4BAE
:101CF000082901D1002102E00A2903D1382111600D
:101D0000132206E00C2901D1342100E03C211160AE
:101D100012221A60134B1A78134B002A01D00022AA
:101D200000E001221A60114B1A78114B012A01D8E8
:101D300080220CE0042A01D8842208E0082A01D875
:101D4000852204E0102A01D8862200E087221A604A
:101D5000084B01221A707047DD00002008B00340D4
:101D60000CB00340F305002020B00340DE0000204B
:101D700024B00340F105002070B5031E0C2B0DD9D3
:101D8000021C0E3AD2B20C2A07D91A1C263A193B69
:101D90000020DBB2012A32D800E0131C184AD45CC0
:101DA000184B1B78002B01D0FFF744FF72B6164B7F
:101DB0001022610605D51968914319603F231C4024
:101DC00002E019680A431A60104B114D01221C6091
:101DD0002A7062B61E1C72B633681A0608D50D4BFF
:101DE000186800232B7062B60B4B1B78184106E075
:101DF0002B78002BDBD062B601F004F8EBE770BD66
:101E000060550000F10500200CB0034000B0034015
:101E1000F205002010B00340F00500200C4B80229A
:101E2000196812060A431A600A4B1A780A4B002AEC
:101E300001D1D02200E090221A70084B984200DDB8
:101E4000181CC343DB171840054B18807047C04669
:101E50003C800440F305002021F00340FF0F000008
:101E600000F003400E4B10B51940C023DB041943AA
:101E70000C4B19600C4B1A6072B60C4C01230343D7
:101E8000201C984762B622787023134000D023703C
:101E9000074B80221968D2000A431A6010BDC04661
:101EA000FCFFFF0004000240080002400000024066
:101EB0000C3000F0F8231B021988084A914203D124
:101EC000074A023B138008E0802202335202934209
:101ED000F2D10222024B52421A807047FFFF0000EB
:101EE000F405002038B50B4D041C2A88002A02D1C5
:101EF000FFF7E0FF2A88FF207F2C0AD8F8231B0277
:101F00009A4206D31988CDB2A54200D1080A0233FD
:101F1000F6E738BDF4050020F0B5484FA7B0041C23
:101F2000388802AE0D1C01904549301C0E2203F08A
:101F3000F3F97F2C00D97FE00199002903D1FFF745
:101F4000B9FF3E4A11883F4B023199420CD83B48B9
:101F50002A02144301808A0702D43B4A224301E04B
:101F600022041A43301C65E000231820C018FF2209
:101F7000694601334254802BF7D1F8231B0219889C
:101F8000CAB27F2A02D8090A06A8815480220233E5
:101F900052029342F3D106A90D552C4B2C4D2B60C8
:101FA00072B62C4C01233343201C0193984762B630
:101FB0002278702313402A1C251C002B00D023708C
:101FC000254C80202368C00003432360234B13600B
:101FD00072B6204F0199381C884762B62D7870235D
:101FE00080221D40D200002D00D03D7023680027C4
:101FF00013432360F824240206AAD35DFF2B0ED0DE
:10200000A00702D41D023D4308E03A0415431B0615
:102010001D43301C211C2A1CFFF724FF023401370A
:10202000802FE9D105490C80A20705D5064A301C4E
:102030002A43211CFFF716FF27B0F0BDF40500204E
:1020400070550000FFFF00000000FFFF00F80009CE
:1020500004000240000002400C3000F000FC0009C7
:1020600038B5041CFFF73EFF051C601CFFF73AFF64
:1020700000020543A8B238BD38B5051C0C1CC9B216
:10208000FFF74AFF681C210AFFF746FF38BDFFFF34
:10209000024B1A6801321A607047C046F8050020EA
:1020A00010B50B4C23685A0301D500F0EBFA2368F6
:1020B0005A0501D501F06AF923681A0501D501F026
:1020C000ABFB2368DA04ECD501F05AFEE9E7C04621
:1020D0003480044008B5FFF7E3FFFFFF014B002207
:1020E0001A607047008104407047FFFF024A13687E
:1020F00018181060181C7047E0000020FEE7FFFF72
:10210000EFF31380002821D1EFF31082002A1FD1B2
:10211000EFF30583002B0FD0101C0F2B0ED91A1CC8
:10212000103A92080B490320920003405218834052
:102130001068D840C0B201E080204000EFF3118267
:10214000002A05D0824203D2101C01E00120404247
:102150007047C04600E400E010B51A2818D80C23D8
:1021600058430C4A835810181C7D027A224205D02D
:10217000002901D01A710BE01A7209E043681A684D
:10218000002902D003210A4301E002218A431A6098
:1021900010BDC0468055000000231A280AD80C2321
:1021A0005843054A81581018027A0B7C13405A1E76
:1021B0009341DBB2181C704780550000F0B51A2817
:1021C0003DD80C273D1C45431D4A54196368161C15
:1021D000012901D0042912D1784332583018147DD6
:1021E000007A20431075A22252001A60202204298E
:1021F00001D1196814E0196891430A1C1EE0AA581D
:10220000247A107DA0431075002902D08A1E012A6D
:1022100012D8802252001A60022903D11A680321C1
:102220000A430BE003290AD11A6802210A431A6003
:102230001A6801218A4301E00422FF321A60F0BDCE
:102240008055000038B50A1C041C434B1A280ED1D7
:102250001B780B2B03D80C21CB1A9A4003E00C2BD4
:1022600001D00C3B1A41101CFFF7D8FD72E0197821
:1022700001252B1C8B40002A01DC002102E09A4240
:1022800005D3291CFFF768FF201C291C60E0231CD4
:10229000103B0338012B01D8304B05E0C3B2012BB2
:1022A00001D82F4B00E02F4B1B6801335343CB4029
:1022B000142843D801F0EEFF353B421F4242151A65
:1022C0004242424242292F424224420B1000264AF7
:1022D0001360264A264B2FE0264A1360234A264BDA
:1022E0002AE0264A1360214A254B25E0254A13603F
:1022F0001E4A254B20E0254A13601C4A244B1BE054
:10230000244A1360194A244B16E0244A1360D12250
:102310009200234B10E0234A1360D1229200224BFB
:102320000AE0224A1360D1229200214B04E0214AA4
:102330001360D122204B92001A600BE001217F2A0A
:1023400000DC0021C9B2201CFFF706FF201C012180
:10235000FFF734FF38BDC046E4000020089003407A
:1023600008A003400880034010800340440400009C
:1023700004B004401880034008B0044020800340AB
:102380000CB004402880034010B00440308003406B
:1023900010C004403880034014C004401090034033
:1023A00000A004401890034004A0044010A0034083
:1023B0000490044018A003400890044072B60C4BEF
:1023C0000C491A680C4B1B68096862B6480104D5B1
:1023D00032219142894149425B18FA2080004343EF
:1023E0000648821A06484243920D98187047C04624
:1023F00018E000E004ED00E0F80500207FBB0000DD
:102400005555010038B5041CFFF7D8FF051C002CFA
:102410000FD0FFF7D3FF074B401B984206D9013C72
:10242000002C06D0FA239B00ED18F2E700F0EAFC3E
:10243000EFE738BDE70300001C4B8022D20510B542
:102440001A60802212061A60194B00201860194980
:10245000194B1A4A196028231360194A194C136042
:10246000194A1360194A1360194A1360194A136014
:1024700009222260184C2060184C2160184C2360FF
:10248000184C2360184C2260184C206018480160DA
:1024900018490B6018490B60184B1A60FFF724FCB1
:1024A000FA20FFF7AFFF00F08FFB10BD00E100E066
:1024B00004800340FFBF0000088003400C800340FD
:1024C00014800340008003401C80034024800340AC
:1024D0002C80034034800340049003400890034064
:1024E0000C900340149003400090034004A003406C
:1024F00008A003400CA0034014A0034000A0034028
:10250000F0B50B4F02223B780A4E1A43D2000A4D17
:10251000B418606028788824002800D0C8240904F2
:102520000C43B45001225040534028703B70F0BD22
:102530004006002000F8FF1F90060020431E10B543
:10254000052B0FD872B6084A99008858002807D082
:1025500044685B008C50054A01889C5A611A995264
:1025600062B600E0002010BD2806002058080020B8
:10257000431E0020052B09D872B6054A9B009B58C4
:10258000002B02D001305B68FAE762B67047C046A4
:102590004C06002038B572B60123164A9A18013A43
:1025A000127811071CD5144A5C01A5589900002D1A
:1025B00005D1131908305860104BA3500AE00124CC
:1025C0002143C9008C58002C0AD153180830586098
:1025D0000B4B8B500B4B1A78013A1A7062B608E01D
:1025E0000133072BD9D162B6064B00221A7000F0D6
:1025F0005FFB38BDC456000000F8FF1F8800400094
:10260000C800400086060020421E10B5052A30D8BA
:10261000022380001843174BC0001B1872B6164CDB
:10262000A05C032809D801F035FE14021605083312
:10263000022011E0083304200EE0104892001458E4
:102640000F4B002C01D1115001E098584160995076
:102650000EE0032000E00520A0540A1C08325A6056
:102660008822180700D5C822098809040A431A607D
:1026700062B610BD00F8FF1F180600204C060020AF
:1026800064060020F7B5B9480378011CDBB25A078D
:1026900011D5B74A1278002A0AD0B6480278D2B2C9
:1026A000002A05D0013AD2B20270002A00D100BE41
:1026B000AE4D04222A7008251A1C2A4000D11EE2C1
:1026C000AD4BAE4C1B78DBB29A081E09D200002E2F
:1026D00000D0A7E1A21817685168B806000F0138AA
:1026E0000C2800D99BE101F0DFFD3D013D019A017D
:1026F0009A019A019A019A019A0177019A019A0125
:102700009A010D000B689E4D49689E4869609E497C
:10271000002711609D4901222B600A709BB2A02105
:1027200007602761A761C9008B4200D1F2E015D88C
:10273000822B00D1AAE007D8802B00D0E6E0944C91
:10274000277067700227E6E081225200934200D191
:10275000ABE0904A934200D1B6E0D7E0882109016E
:102760008B4200D18CE008D88B495B18012B00D933
:10277000CCE06A88A988894BBAE090221201934282
:1027800000D0C3E0AA787A4B1A70E3191A6A1206CD
:1027900003D5586A083800F08BFA0837C02FF4D1F7
:1027A0000026371C7E4BF058002805D04168019167
:1027B00000F07EFA0198F7E77A4B794AF0507A4BAD
:1027C0009051F058002805D04168019100F070FA4E
:1027D0000198F7E7744A754B9051754AF0507B00A9
:1027E000D052744BF85C0238032807D801F052FD30
:1027F00002040204002200E00122DA550137043607
:10280000062FCFD16C4F00233B7001266B4BF21883
:102810006B4B9200F318013B1B781370180720D5FF
:1028200000F028FA7301002805D0E2180830506043
:10283000644AE25003E0E0503B7801333B7000F023
:1028400019FA0122B3001343DB00002805D0E21877
:10285000083050605C4AE25003E0E0503B780133BE
:102860003B70B20002211143C900002363500321D1
:102870000A438A400136A350072EC7D11F1C49E0E6
:102880003B4B434C1B78171C237044E0AB88062B52
:102890003CD83F4C4D499B00277067705B181B78F4
:1028A00002273B4237D0227035E0AA887F231340AD
:1028B000062B2BDC6F88002F28D1444A9B009B18E5
:1028C0001A7802218A430DE0AA887F231340062B41
:1028D0001CDC6F88002F19D13C489B001B181A780C
:1028E00002210A431A7015E01888904204D00C3374
:1028F0005C68002CF8D109E058888842F7D1120AA8
:10290000032A01D1277806E01F8904E02F4B0F220C
:102910001A7024E03C1CEB889F4200D91F1C3E1E0D
:10292000082E00D90826201C311CFFF7E9FDA41948
:10293000BF1B03D13D1C082E04D010E00825BD426A
:1029400000D93D1C201C291CFFF7DAFD64197F1BF0
:1029500001D1082D03D10B4D1D4B2C601F8001228E
:102960001C4B5BE0084B136059E0C04680200740D9
:102970008F060020410600209020074000F8FF1F2E
:102980007C060020FC050020C800080090060020FE
:10299000870600200203000080F9FFFFCC560000EC
:1029A00028060020000600204C06002064060020B7
:1029B00058080020180600208606002030C80110A4
:1029C000C456000088004000C8004000C0200740F6
:1029D0008406002094200740644E3768002F13D0EF
:1029E000634805882C1E082C00D90824211C381C9B
:1029F000FFF786FD2D1B5E49ADB20D80002D01D184
:102A0000082C00D13D1935605A4BA0221988D200FC
:102A1000914204D100225A709A78574B1A700122C1
:102A2000564B60E0A4186068013E0838F6B22B40AF
:102A300036D000F03DF95249B0004258514B002ABF
:102A40001BD055684550111C985D08316160032802
:102A50000BD801F01FFC02040608032104E0022148
:102A600002E0052100E0042199558823270700D5BD
:102A7000C8231288120413433CE0985D032808D849
:102A800001F008FC39390204002200E001229A55C5
:102A900031E02C40624262410324A41A9C552AE092
:102AA00062880280002A20D0374D43804360B30003
:102AB0005F593649002F01D1585101E0CD58686067
:102AC000C850334B7600F15A5218F25200F0D2F847
:102AD000002804D00830606020070AD507E02D4B9D
:102AE00020601A7801321A7005E02C4201D02A4B7E
:102AF00000E02A4B23602A4908230B70C3E5012418
:102B000023421ED01D4802230370264B264D1A7007
:102B1000264B274E1D609D60264D1A61DD609A612F
:102B20005E60254B0D251D70244DFF232B700B700F
:102B300011490A70224A1370224B9F221A700470A6
:102B400013E05AB2002A04DA1B4A0D2010708022CA
:102B50000A700222134204D018480478E4B20470C8
:102B60000A701022134200D00A70F7BDFC05002045
:102B7000840600207C06002098200740942007400F
:102B80004C06002018060020280600200006002021
:102B90005808002086060020C80040008800400039
:102BA00080200740400600208800080000F8FF1F32
:102BB0002006002044060020C0200740882007404F
:102BC0008C2007408420074010B501F04FF9002207
:102BD0001A4B0021D150981808324160C82AF7D109
:102BE000174A80201468C00220431060180A154A52
:102BF000C0B21070180C144AC0B21070134A1B0EE9
:102C00001370134AFF231370124A13481370134AA8
:102C10001370012202701248017012490A70124AA0
:102C2000116899430B1C70210B4313600F4B8022DA
:102C300052041A600E4B10221A7010BD00F8FF1FCC
:102C4000348004409C200740B0200740B420074057
:102C5000802007408820074094200740102007402C
:102C6000002107408420074018E400E000E100E074
:102C70000821074038B572B60B4C2568281C01F0B6
:102C800007FC172802D962B600200CE080231B063F
:102C9000C3409D43256062B648235843034B181830
:102CA00000230360436038BDE800002000FAFF1FE6
:102CB00010B5041C0E484821201A01F0FFFA17280D
:102CC00015D80C4B1B78002B07D00B4B1B78002B17
:102CD00003D0201CFFF75EFC09E072B68022074B90
:102CE0001206C240101C1A681043186062B610BD6C
:102CF00000FAFF1F860600208F060020E800002053
:102D0000F7B5144F061C3A680D1C0192124B1B7844
:102D1000002B19D00220FFF711FC041E09D13B68DB
:102D2000019A9B1AAB4212D8002D11D000F06AF81C
:102D3000ECE7011C08310822301C02F0EDFA201CDF
:102D4000FFF7B6FF082004E00120404201E000E068
:102D5000281CFEBDF80500208F060020034B002034
:102D60001B78834201D0024B588870478F060020A1
:102D700058080020F7B5154F051C3A680E1C019243
:102D8000134B01201B78002B1CD0FFF7F1FB02280E
:102D900007D93B68019A9B1AB34215D800F032F864
:102DA000EEE7FFF767FF041EF3D01426291C321C40
:102DB000083002F0B1FA01202680211CFFF724FC24
:102DC000301C02E0404200E00020FEBDF80500207B
:102DD0008F06002038B5049D1C1C401AEB1A58437E
:102DE000511A01F0B9FA001938BD08B5FDF7C4FF52
:102DF000FDF734FF00F006F8FAE708B502F082FAB2
:102E000008BDFFFF10B50D4C2378002B15D1012311
:102E1000237000F049FA002801D001F0F0F800F02A
:102E200089FC002801D001F088F900F037FF002864
:102E300001D001F020FA0023237010BD910600207C
:102E4000F8B5061C0D1C171C0024301C391C01F0A1
:102E500079FA092901D8303100E03731C9B2295552
:102E6000301C391C01F02AFA061E01D00134ECE7AF
:102E70002B1958702B1C5A1BA24206DA1A78295DAE
:102E800019702A550133013CF5E7281CF8BDFFFFF6
:102E9000264B80221968D2000A431A60244A002374
:102EA0001370244A1370244A1370244A1370244A5E
:102EB0001370244B1B78032B09D0152B04D0002B47
:102EC00008D1214A214B04E01F4A214B01E0214A4D
:102ED000214B1A60214B1B78042B0BD0052B05D0FE
:102EE000012B0BD1D12292001D4B06E0D122920082
:102EF0001C4B02E091221C4B92001A601B4BC20437
:102F0000D20E1A70C0B2002258709A702C22DA7059
:102F1000174BFF22196891430A1C40210A431A608B
:102F2000144B802252011A607047C046348004401E
:102F30001D07002099060020240700201E070020FE
:102F400098060020DA0600201303000040A0044089
:102F500018C004401302000004900440EC0000205C
:102F600044A004401CC004400890044000A0064057
:102F70000CE400E000E100E010B5124B1322997858
:102F80009143032202400A43410701D510210A431D
:102F90009A700F220B490240042A03D18A794024F7
:102FA00022438A715A7910218A43084200D00A4389
:102FB0005A719A7910218A43840600D50A439A717E
:102FC00010BDC04600A0064008B5124B1B685A054C
:102FD0001ED5114B1B78DBB2002B02D0FFF712FF7E
:102FE000F7E70E4A8021490111600D4A0D49D3705F
:102FF0000422FF320A600C490A600C4A13700C4A22
:1030000013700C4B1B68002B02D00B4A12781A71FC
:1030100008BDC046348004409806002080E100E0EE
:1030200000A0064040A0044044A004401D0700202A
:103030009906002094060020DB06002038B5041C09
:103040000B4B1D78EDB2002DFAD1201C0121FFF7AA
:10305000B5F8291C201CFFF77FF80C225443054BC0
:10306000054AE1581C191160044B227A1A7038BDC8
:103070009806002080550000200700201C07002033
:1030800010B5154A1378984225D0144909684C05A3
:1030900020D5042B09D0052B04D0012B08D1002109
:1030A0000F4B04E000210F4B01E00F4B0021196092
:1030B00004280BD0052805D001280BD1D121890087
:1030C000074B06E0D1218900064B02E09121064B17
:1030D00089001960107010BDEC000020348004409D
:1030E00044A004401CC004400890044010B5144A99
:1030F0001378984222D0134909684C051DD5032B3B
:1031000009D0152B04D0002B08D10F490B6005E026
:1031100000210E4B01E00E4B00211960032809D05D
:10312000152804D0002808D10A49074B04E00949B2
:10313000064B01E00849064B1960107010BDC046EF
:10314000DA0600203480044040A0044018C0044047
:1031500004900440130300001302000038B50E4B26
:103160001A680023510514D50C4C1A2810D80C23CA
:1031700043430B4A0B4D9958D3181B7A2160012108
:103180002B70FFF71BF823682A781A72012300E0DE
:103190002360181C38BDC0463480044094060020CB
:1031A00080550000DB06002000207047F8B5214B59
:1031B000071C1B685A053BD51F4B1B68002B02D010
:1031C0001E4A12781A711E4E002334783F220134B1
:1031D000A2425B415B421C401A4D2B78A3421CD19A
:1031E000FEF78EFF402813DC174A13795BB2002BE1
:1031F000F2DA2B78002101333F20984249414942BD
:103200000B401249C95CDBB2C9B2D1712B70E3E744
:10321000FF28E1DDFFF7F6FDDEE70C4BFFB21F559F
:103220000B4B01221A70084BE4B2AC223470DA70F6
:10323000F8BDC04634800440200700201C07002051
:10324000240700201E07002000A006409A06002048
:103250009806002038B5041C4518AC4204D02078EC
:10326000FFF7A4FF0134F8E738BDFFFF08B5044BB2
:103270001B78002B02D0FFF7C5FDF8E708BDC0465C
:1032800098060020064B074A1B781078DBB2C0B2C4
:10329000834201D33F3000E00138C01A7047C04676
:1032A000240700201E070020054B1878054BC0B2EC
:1032B0001B78DBB2984200D24030C01A7047C0463B
:1032C0001D0700209906002010B5124B12491A78EC
:1032D0000B78D2B2DBB29A4219D001333F240020DE
:1032E0009C424041404203400C48DCB2C05C0C7040
:1032F0000B49C0B2096800290BD09A4200D2403273
:10330000D31A1A2B05DC074B1B780B7201E0012046
:10331000404210BD1D07002099060020DC06002059
:1033200094060020DB0600200A4B1A780A4B1B7813
:10333000DBB29A420AD0013300223F219942524126
:1033400052421340054AD05CC0B201E00120404225
:103350007047C0461D07002099060020DC060020AB
:10336000064B1A78064BD2B21A70064B1B68002B1C
:1033700002D0054A12781A727047C046990600209A
:103380001D07002094060020DB06002030B5254AEA
:103390001379990612D52449D4790B78002001338A
:1033A0003F259D424041404203402048E4B200781E
:1033B000834203D01E48C454DBB20B70D178194C41
:1033C000C9B24BB2002B1ADA23795BB2002B16DAA2
:1033D000184B19481D780378DBB29D4202D16C234B
:1033E000E3700CE0013300243F259D4264416442B8
:1033F0002340124CE45CDBB2E4B2D471037040238E
:1034000019420ED0117919420BD00D4B00211970C1
:103410000C4B1B688B4202D00B49097819722C2384
:10342000D37030BD00A006401D0700209906002083
:10343000DC060020240700201E0700209A0600203A
:1034400098060020200700201C070020164B802231
:10345000196812010A431A60144A00231370144AAF
:1034600014491370144A1370144A1370144A1370D9
:10347000144A1160144AD12189001160134AC10411
:10348000C90EC0B21170507093702C23D370104BC2
:10349000104A19680A408021C9010A431A600E4B7C
:1034A000802292011A6070473480044098070020FF
:1034B0002D07002013030000A0070020990700201B
:1034C0002C0700200CB0044010B0044000B00640AF
:1034D0000CE400E0FF00FFFF00E100E010B5124B3C
:1034E000132299789143032202400A43410701D5F0
:1034F00010210A439A700F220B490240042A03D17B
:103500008A79402422438A715A7910218A430842D9
:1035100000D00A435A719A7910218A43840600D553
:103520000A439A7110BDC04600B0064008B5124B60
:103530001B681A051ED5114B1B78DBB2002B02D07D
:10354000FFF760FCF7E70E4A8021890111600D4A00
:103550000D49D3700422FF320A600C490A600C4AFC
:1035600013700C4A13700C4B1B68002B02D00B4AD3
:1035700012781A7108BDC046348004402C07002020
:1035800080E100E000B006400CB0044010B0044000
:10359000980700202D07002028070020560700204C
:1035A00038B5041C0B4B1D78EDB2002DFAD1201C50
:1035B0000121FEF703FE291C201CFEF7CDFD0C2285
:1035C0005443054B054AE1581C191160044B227AFB
:1035D0001A7038BD2C070020805500009C07002081
:1035E000970700207047704738B50E4B1A680023C4
:1035F000110514D50C4C1A2810D80C2343430B4A40
:103600000B4D9958D3181B7A216001212B70FEF7BE
:10361000D5FD23682A781A72012300E02360181C64
:1036200038BDC04634800440280700208055000083
:103630005607002000207047F8B5214B071C1B6877
:103640001A053BD51F4B1B68002B02D01E4A12786F
:103650001A711E4E0023347827220134A2425B41A6
:103660005B421C401A4D2B78A3421CD1FEF748FD4B
:10367000402813DC174A13795BB2002BF2DA2B785F
:103680000021013327209842494149420B40124909
:10369000C95CDBB2C9B2D1712B70E3E7FF28E1DD71
:1036A000FFF7B0FBDEE70C4BFFB21F550B4B0122BF
:1036B0001A70084BE4B2AC223470DA70F8BDC04620
:1036C000348004409C07002097070020A0070020BA
:1036D0009907002000B006402E0700202C0700208C
:1036E00038B5041C4518AC4204D02078FFF7A4FF7D
:1036F0000134F8E738BDFFFF08B5044B1B78002BF9
:1037000002D0FFF77FFBF8E708BDC0462C0700207A
:10371000064B074A1B781078DBB2C0B2834201D354
:10372000273000E00138C01A7047C046A0070020CB
:1037300099070020054B1878054BC0B21B78DBB207
:10374000984200D24030C01A7047C0469807002007
:103750002D07002010B5124B12491A780B78D2B2FF
:10376000DBB29A4219D001333F2400209C424041F1
:10377000404203400C48DCB2C05C0C700B49C0B244
:10378000096800290BD09A4200D24032D31A1A2B72
:1037900005DC074B1B780B7201E00120404210BD95
:1037A000980700202D070020570700202807002039
:1037B000560700200A4B1A780A4B1B78DBB29A4254
:1037C0000AD0013300223F21994252415242134014
:1037D000054AD05CC0B201E0012040427047C046BB
:1037E000980700202D07002057070020064B1A7865
:1037F000064BD2B21A70064B1B68002B02D0054A4A
:1038000012781A727047C0462D07002098070020D2
:10381000280700205607002030B5254A137999065D
:1038200012D52449D4790B78002001333F259D42DD
:103830004041404203402048E4B20078834203D034
:103840001E48C454DBB20B70D178194CC9B24BB2CC
:10385000002B1ADA23795BB2002B16DA184B1948C1
:103860001D780378DBB29D4202D16C23E3700CE03B
:103870000133002427259D42644164422340124CB9
:10388000E45CDBB2E4B2D4710370402319420ED081
:10389000117919420BD00D4B002119700C4B1B688C
:1038A0008B4202D00B49097819722C23D37030BD9A
:1038B00000B00640980700202D0700205707002081
:1038C000A0070020990700202E0700202C070020C9
:1038D0009C07002097070020204B80221968520186
:1038E0000A431A601E4A002313701E4A13701E4AB0
:1038F00013701E4A13701E4A13701E4B1B78062B42
:1039000004D0072B05D11C4A1C4B01E01A4A1C4B62
:103910001A601C4B1B78082B05D0142B07D1D12221
:103920009200194B02E0D122184B92001A60184BFA
:10393000C204D20E1A70C0B2002258709A702C22A3
:10394000DA70144B144A19680A408021C9030A43EB
:103950001A60124B8022D2011A60704734800440F2
:1039600014080020A90700201C08002015080020CA
:10397000A8070020ED0000201303000008C0044049
:1039800010C00440EE00002014C004400CC00440ED
:1039900000C006400CE400E0FFFF00FF00E100E093
:1039A00010B5124B132299789143032202400A4327
:1039B000410701D510210A439A700F220B4902409A
:1039C000042A03D18A79402422438A715A7910212A
:1039D0008A43084200D00A435A719A7910218A43D7
:1039E000840600D50A439A7110BDC04600C0064047
:1039F00008B5124B1B68DA041ED5114B1B78DBB2DD
:103A0000002B02D0FFF7FEF9F7E70E4A8021C9012B
:103A100011600D4A0D49D3700422FF320A600C492F
:103A20000A600C4A13700C4A13700C4B1B68002B75
:103A300002D00B4A12781A7108BDC0463480044087
:103A4000A807002080E100E000C0064008C0044054
:103A50000CC0044014080020A9070020A40700207F
:103A6000D207002038B5041C0B4B1D78EDB2002D99
:103A7000FAD1201C0121FEF7A1FB291C201CFEF716
:103A80006BFB0C225443054B054AE1581C1911608D
:103A9000044B227A1A7038BDA80700208055000018
:103AA000180800201308002010B5104A1378984217
:103AB0001AD00F490968CC0415D5082B04D0142B53
:103AC00005D100210B4B01E00B4B002119600828A8
:103AD00005D0142807D1D1218900064B02E0D1215D
:103AE000054B89001960107010BDC046EE00002023
:103AF0003480044014C004400CC0044010B50F4A88
:103B00001378984218D00E490968CC0413D5062BB7
:103B100004D0072B05D100210A4B01E00A4B0021FC
:103B20001960062804D0072805D10849054B01E093
:103B30000649054B1960107010BDC046ED0000200D
:103B40003480044008C0044010C004401303000047
:103B500038B50E4B1A680023D10414D50C4C1A2822
:103B600010D80C2343430B4A0B4D9958D3181B7A9A
:103B7000216001212B70FEF721FB23682A781A723D
:103B8000012300E02360181C38BDC0463480044087
:103B9000A407002080550000D207002000207047B5
:103BA000F8B5214B071C1B68DA043BD51F4B1B687B
:103BB000002B02D01E4A12781A711E4E0023347850
:103BC00027220134A2425B415B421C401A4D2B78F4
:103BD000A3421CD1FEF794FA402813DC174A13794C
:103BE0005BB2002BF2DA2B780021013327209842B8
:103BF000494149420B401249C95CDBB2C9B2D1719B
:103C00002B70E3E7FF28E1DDFFF7FCF8DEE70C4B64
:103C1000FFB21F550B4B01221A70084BE4B2AC22C5
:103C20003470DA70F8BDC0463480044018080020B3
:103C3000130800201C0800201508002000C00640C2
:103C4000AA070020A807002038B5041C4518AC427C
:103C500004D02078FFF7A4FF0134F8E738BDFFFF58
:103C600008B5044B1B78002B02D0FFF7CBF8F8E720
:103C700008BDC046A8070020064B074A1B781078ED
:103C8000DBB2C0B2834201D3273000E00138C01A52
:103C90007047C0461C08002015080020054B187806
:103CA000054BC0B21B78DBB2984200D24030C01A3C
:103CB0007047C04614080020A907002010B5124B19
:103CC00012491A780B78D2B2DBB29A4219D001337A
:103CD0003F2400209C424041404203400C48DCB25B
:103CE000C05C0C700B49C0B2096800290BD09A4225
:103CF00000D24032D31A1A2B05DC074B1B780B720B
:103D000001E00120404210BD14080020A907002056
:103D1000D3070020A4070020D20700200A4B1A78FE
:103D20000A4B1B78DBB29A420AD0013300223F21B2
:103D30009942524152421340054AD05CC0B201E060
:103D4000012040427047C04614080020A907002007
:103D5000D3070020064B1A78064BD2B21A70064BD6
:103D60001B68002B02D0054A12781A727047C046B1
:103D7000A907002014080020A4070020D207002073
:103D800030B52E4A1379990624D52D49D4790B786C
:103D9000002001333F259D424041404203402948D5
:103DA000E4B20078834203D02748C454D8B20870E4
:103DB0002649086800280DD025490978C9B28B42E8
:103DC00001D35B1A01E05B1A4033272B02DD214B44
:103DD0001B780371D178194CC9B24BB2002B1ADA97
:103DE00023795BB2002B16DA1B4B19481D78037838
:103DF000DBB29D4202D16C23E3700CE0013300245E
:103E000027259D42644164422340144CE45CDBB2AC
:103E1000E4B2D4710370402319420ED011791942D3
:103E20000BD00F4B002119700E4B1B688B4202D038
:103E30000D49097819722C23D37030BD00C006409B
:103E400014080020A9070020D3070020A4070020A1
:103E500015080020D20700201C080020AA07002017
:103E6000A807002018080020130800201FB572B60C
:103E7000154B70221A70154A41211170144A0F21F6
:103E8000117080221A701A7852B2002AFBDA114B94
:103E9000186862B6104B984201D80A23584301AC07
:103EA000211C0A22FEF7CCFF0023E15C0B4A00290B
:103EB00005D058001018013341800A2BF5D1013389
:103EC0005B0013701FBDC0460000024007000240A7
:103ED00006000240080002407F9698002E03002052
:103EE00008B50368C9B21B68984708BD08B50368E0
:103EF000C9B21B68984708BD08B50368C9B21B68FA
:103F0000984708BD08B50368C9B21B68984708BD43
:103F100008B5044B4808C01800F0D0F9FEF7B8FF08
:103F200008BDC046C0C62D0010B5064B4808C018D5
:103F3000141C00F0C3F9FEF7ABFF201CFFF71CF8C0
:103F400010BDC046C0C62D0008B5FFF73DF808BD3E
:103F500008B5081CFFF772F808BD08B5081CFFF784
:103F6000C5F808BD08B5081CFFF78AF808BD08B5F4
:103F7000081CFFF7F3F8431E9841C0B208BD08B50E
:103F8000081CFFF711F9431E9841C0B208BD08B5DF
:103F9000FFF78AF908BD08B5FFF7C6F908BD08B5EF
:103FA000FFF792F908BD08B5FFF760F908BD08B53D
:103FB000FFF7D6F908BD08B5FFF764F908BD08B5E5
:103FC000081CFFF7F3F8012008BD08B5081CFFF72F
:103FD000EDF8012008BD10B5081C141C111CFFF7DA
:103FE00039F9201C10BD38B5081C0D1C01F054FA1D
:103FF000041C211C281CFFF72DF9201C38BD70471C
:10400000044B00221A711A73FA21034A890099603D
:104010001A607047200800203857000008B5036870
:10402000C9B21B68984708BD08B50368C9B21B68C8
:10403000984708BD08B50368C9B21B68984708BD12
:1040400008B50368C9B21B68984708BD08B5044B9A
:104050004808C01800F032F9FFF7F8F908BDC0466B
:1040600060E3160010B5064B4808C018141C00F099
:1040700025F9FFF7EBF9201CFFF730FA10BDC04619
:1040800060E3160008B5FFF751FA08BD08B5081C33
:10409000FFF786FA08BD08B5081CFFF7A4FA08BDAB
:1040A00008B5081CFFF79EFA08BD08B5081CFFF705
:1040B0009BFA431E9841C0B208BD08B5081CFFF723
:1040C000B9FA431E9841C0B208BD08B5FFF732FBEC
:1040D00008BD08B5FFF76EFB08BD08B5FFF73AFB52
:1040E00008BD08B5FFF708FB08BD08B5FFF77EFB64
:1040F00008BD08B5FFF70CFB08BD08B5081CFFF7A5
:104100009BFA012008BD08B5081CFFF795FA0120AD
:1041100008BD10B5081C141C111CFFF7E1FA201C87
:1041200010BD38B5081C0D1C01F0B6F9041C211C8B
:10413000281CFFF7D5FA201C38BD7047044B00221D
:104140001A711A73FA21034A890099601A6070473C
:10415000300800209857000008B50368C9B21B68F2
:10416000984708BD08B50368C9B21B68984708BDE1
:1041700008B50368C9B21B68984708BD08B503684D
:10418000C9B21B68984708BD08B5044B4808C01859
:1041900000F094F8FFF7A0FB08BDC04660E31600EE
:1041A00010B5064B4808C018141C00F087F8FFF73C
:1041B00093FB201CFFF7F4FB10BDC04660E3160024
:1041C00008B5FFF715FC08BD08B5081CFFF74AFC49
:1041D00008BD08B5081CFFF791FC08BD08B5081C10
:1041E000FFF762FC08BD08B5081CFFF7B1FC431ED1
:1041F0009841C0B208BD08B5081CFFF7CFFC431EAC
:104200009841C0B208BD08B5FFF748FD08BD08B524
:10421000FFF784FD08BD08B5FFF750FD08BD08B5E0
:10422000FFF71EFD08BD08B5FFF794FD08BD08B5F2
:10423000FFF722FD08BD08B5081CFFF7B1FC0120FF
:1042400008BD08B5081CFFF7ABFC012008BD10B580
:10425000081C141C111CFFF7F7FC201C10BD38B5FE
:10426000081C0D1C01F018F9041C211C281CFFF768
:10427000EBFC201C38BD7047044B00221A711A73E6
:10428000FA21034A890099601A60704740080020AB
:10429000F857000002B4714649084900095C49001A
:1042A0008E4402BC7047C04603B4714649084000C2
:1042B0004900095A49008E4403BC7047002934D094
:1042C0000123002210B488422CD301242407A142E8
:1042D00004D2814202D209011B01F8E7E400A142A5
:1042E00004D2814202D249005B00F8E7884201D340
:1042F000401A1A434C08A04202D3001B5C08224318
:104300008C08A04202D3001B9C082243CC08A04288
:1043100002D3001BDC082243002803D01B0901D074
:104320000909E3E7101C10BC7047002801D00020E9
:10433000C04307B4024802A14018029003BDC04622
:10434000D90000000029F0D003B5FFF7B9FF0EBC7B
:104350004243891A1847C046002941D010B4041CB2
:104360004C40A44601230022002900D549420028E0
:1043700000D5404288422CD301242407A14204D214
:10438000814202D209011B01F8E7E400A14204D2F4
:10439000814202D249005B00F8E7884201D3401A0B
:1043A0001A434C08A04202D3001B5C0822438C082D
:1043B000A04202D3001B9C082243CC08A04202D397
:1043C000001BDC082243002803D01B0901D0090987
:1043D000E3E7101C6446002C00D5404210BC704737
:1043E000002806D003DB0020C043400801E0802005
:1043F000000607B4024802A14018029003BDC0465F
:10440000190000000029EBD003B5FFF7A7FF0EBC91
:104410004243891A1847C0467047C0468446081C64
:104420006146FFE71FB500F06DFB002801D40021B5
:10443000C8421FBD10B500F0F3FA4042013010BD74
:1044400010B500F05FFB002801DB002010BD01204B
:1044500010BDC04610B500F055FB002801DD00205E
:1044600010BD012010BDC04610B500F003FB0028B0
:1044700001DC002010BD012010BDC04610B500F0C9
:10448000F9FA002801DA002010BD012010BDC04655
:104490001C2101231B04984201D3000C10391B0A74
:1044A000984201D3000A08391B09984201D3000938
:1044B000043902A2105C40187047C046040302028F
:1044C0000101010100000000000000009E2110B564
:1044D000C905041CFFF7D2FF002803D1201C00F0FF
:1044E000FDFD10BD9E21C905201C00F081FC00F0DF
:1044F000F5FD80231B06C018F3E7C046F8B543025C
:104500004400C50F4E024800240E2A1C9B09000ED1
:10451000C90FB6098D425BD0221A002A00DC89E05F
:1045200000281DD1002E00D075E0580704D00F22BE
:104530001A40042A00D004338021C90419402A1CDF
:1045400000293AD00134FF2C00D17FE09B015B0AA7
:104550005B02E4B2E405580AD20720431043F8BDD9
:10456000FF2CE2D08021C9040E431B2A00DD2DE17F
:10457000311C2020D140821A9640721E96410E4373
:104580009B1B5801D1D59B019F09381CFFF780FF69
:10459000421F974094425BDC141B1F231B1B3A1CD9
:1045A0009F40611C3B1CCA405F1EBB41134300245B
:1045B000BBE7131EB9D100230022DB08FF2C04D176
:1045C000002B43D08020C00303435B025B0ABFE79C
:1045D000211A002940DD002823D0FF2CA5D08020FF
:1045E000C00406431B2900DDEEE0301C2027C84034
:1045F000791A8E40711E8E4106439B19590100D4D1
:1046000093E70134FF2C55D0714901221A400B4029
:104610005B08134389E7013A002AB1D0FF2CA4D1EB
:1046200083E7002E00D180E701390029E5D0FF2C77
:10463000D8D17AE7002A1BD1621CD2B2012A4BDD05
:104640009F1B7A0123D5F71A0D1C9EE700237FE7F5
:104650005F4BA41A3B4068E7002946D1611CC8B2F1
:10466000012829DDFF2924D0F3185B080C1C5CE726
:10467000002C13D0FF2818D08024E4045242234396
:104680001B2A4DDD0123F31A041C0D1C79E7002FB2
:1046900000D07AE70023002200248EE7002B3BD0D5
:1046A000D243002AEFD0FF28EAD1331CFF240D1C8F
:1046B0003BE7FF24002380E7002C5CD1002B00D1D6
:1046C00080E0002E00D130E79B19580100D42CE780
:1046D0003F4A0124134028E7002C15D1002B40D17C
:1046E000002E63D0331C0D1C1FE7002C21D1002BA2
:1046F00054D0C943002904D0FF284CD01B2958DDD1
:1047000001239B19041C79E7002B19D1002E48D0F6
:10471000331C0D1CFF2408E7331C041C0D1C04E78C
:104720001C1C2025D440AA1A93405A1E93412343AF
:10473000A9E7FF282FD08024E40449422343DDE782
:10474000FF24002E00D1F0E68022DB08D2031342C2
:1047500004D0F608164201D1331C0D1CDB00FF24E7
:10476000E3E6002E00D1E0E69A1B500100D420E7DA
:10477000F31A0D1CD9E6002B0DD0FF24002E00D11A
:10478000D3E68022DB08D2031342E7D0F6081642B4
:10479000E4D1331CE2E7331CFF24C6E6331C041CBF
:1047A000C3E6802300229B04FF2406E7231C00228B
:1047B00003E71C1C2027CC40791A8B40591E8B41E3
:1047C00023439EE7331CB0E6012616E70126D7E611
:1047D000FFFFFFFBF0B55F4656464D464446F0B43A
:1047E00046024500C00F85B00F1C760A2D0E80468C
:1047F00041D0FF2D26D08024240400212643F6003A
:104800007F3D89468B46F90F7C027800640A000ED2
:1048100000918A463CD0FF2834D080231B041C43DF
:104820000023E4007F380193009F4346019A7B40B8
:1048300049469C4611430F2900D971E0764F890003
:104840007F58BF46002E3ED10822022391469B4648
:10485000D9E75A46341CC24601920199022937D041
:10486000032900D1CFE0012900D0ABE053460B4033
:104870000022002632E0002E19D1042101228946AF
:104880009346C0E7221C531E9A4102320192CBE7A5
:1048900001270197002CC7D0201CFFF7F9FD431F0B
:1048A0009C4076235B420021181A0191BCE7301C22
:1048B000FFF7EEFD7625431F9E406D4200232D1A23
:1048C00099469B469FE70C23032199468B469AE71E
:1048D000D446012367463B40FF2200267602D205DC
:1048E000700ADB071043184305B03CBC904699465C
:1048F000A246AB46F0BD80260023F603FF22EDE77B
:1049000000220026EAE78020C00306423BD0044292
:1049100039D1061C26437602760A009BFF22DDE78A
:10492000281A039076016401A64239D3361B1A2255
:1049300001230120311C5B007600002901DBB44219
:1049400001D8361B0343013A002AF3DC741EA6414A
:10495000341C1C43039A7F32002A27DD630704D0EE
:104960000F232340042B00D00434270103D52B4B05
:10497000039A1C408032FE2A0BDD012361460B4066
:10498000FF220026AAE706437602760A4346FF2264
:10499000A4E7A40101236746660AD2B23B409DE723
:1049A000039F1B22013F03970023C2E77E23039F3F
:1049B0005B42DB1B1B2B07DD012361460B40002202
:1049C00000268BE7D446C5E7221CDA40039B9E33C2
:1049D0009C40231C5C1EA34113435A0704D00F22A2
:1049E0001A40042A00D004335F0105D50123614633
:1049F0000B400122002671E79E016246012313400D
:104A0000760A00226AE78026F60326437602760AB3
:104A10005346FF2262E7C04650580000FFFFFFF7F1
:104A20004A02430270B55C0A550A43004A001B0E55
:104A3000C60F120EC90FFF2B05D0FF2A08D0012088
:104A400093420BD070BD0120002CFBD1FF2AF6D180
:104A50000120002DF6D101209342F3D1AC42F1D1D7
:104A60008E4205D0002BEDD1201C441EA041E9E769
:104A70000020E7E74A024302F0B55C0A550A43000A
:104A80004A001B0EC60F120EC90FFF2B31D0FF2A92
:104A900034D0002B16D1604260418446002A14D0E5
:104AA000002820D18E4217D1934215DC04DBAC42A2
:104AB00012D80020AC4212D2704270414042012311
:104AC00018430CE0002AEDD194466F426F416046D6
:104AD000002805D1002FE5D0704201231843F0BD16
:104AE0000020002FFBD14842484140420123184397
:104AF000F5E7002CCBD002204042F0E7002DC8D0D3
:104B0000F9E7C0464A024302F0B55C0A550A430081
:104B10004A001B0EC60F120EC90FFF2B27D0FF2A0B
:104B200029D0002B10D0002A15D194466F426F4136
:104B30006046002815D00020002F04D1484248418B
:104B4000404201231843F0BD604260418446002A80
:104B5000ECD00028F2D18E4211D0704201231843CC
:104B6000F1E7002FF7D0704201231843EBE7022052
:104B7000002CE8D1D3E70220002DE4D1D1E7934205
:104B8000EBDC04DBAC42E8D80020AC42DBD2704264
:104B90007041404201231843D5E7C046F0B55F4657
:104BA00056464D464446F0B44402460083B00F1CBE
:104BB000640A360EC50F002E41D0FF2E22D080236E
:104BC0001B0400201C43E4007F3E82468046391CC3
:104BD0004B007F02C90F7F0A1B0E8B463BD0FF2B79
:104BE00034D0802212041743FF007F3B00215A4635
:104BF0006A40019252460A430F2A63D87A489200CB
:104C000082589746002C3FD10822022392469846AC
:104C1000DDE70195404602282AD1019A0125154079
:104C2000FF2300246402DB05600AED0718432843D4
:104C300003B03CBC90469946A246AB46F0BD002C62
:104C400027D10420012282469046C0E7391C4A1E23
:104C500091410231CBE70121002FC8D0381CFFF76A
:104C600017FC431F9F4076235B421B1A0021BEE7BF
:104C7000032800D1AEE001284FD1019842461040F0
:104C8000C5B200230024CDE70C2303209A468046BA
:104C90009DE7201CFFF7FCFB7626431F9C407642D5
:104CA0000023361A9A46984691E780240025E403AB
:104CB000FF23B7E75B463C1C01938846AAE73C1CF0
:104CC0008846A7E7250C24043A0C240C3F04F61868
:104CD0003F0C211C231C794353436F435543FB185E
:104CE0000A0C9B18B1469F4202D980225202AD188D
:104CF00009041A04090C521894011B0C611E8C4102
:104D0000920EED181443AD012C43230105D5012269
:104D100063080120144081441C434B467F33002B21
:104D20002DDD600704D00F222240042A00D0043475
:104D3000220103D52D4B1C404B468033FE2B17DD43
:104D4000019B01251D400024FF236BE78020C00349
:104D5000044208D0074206D1041C3C436402640AA2
:104D60005D46FF235EE704436402640AFF2359E7BC
:104D70000198A4010125640ADBB2054052E77E23B5
:104D80005B424A469B1A1B2B05DD019B01251D40FA
:104D90000024002346E7221CDA404B469E339C4009
:104DA000231C5C1EA3411343580704D00F221A4052
:104DB000042A00D004335A0105D5019B01251D406A
:104DC000002401232EE701989C010125640A054077
:104DD000002327E78027FF03019B3C436402012552
:104DE0001D40640AFF231DE790580000FFFFFFF7F6
:104DF000F8B5C20F430244004D024800240E161CB1
:104E00009B09000EC90FAD09FF2800D183E00127DF
:104E100079408A425CD0221A002A00DC8EE0002809
:104E20001ED1002D00D07AE0580704D00F221A407E
:104E3000042A00D004338021C904012219403240E1
:104E400000293AD00134FF2C00D183E09B015B0A9A
:104E50005B02E4B2E405580AD20720431043F8BDD0
:104E6000FF2CE1D08021C9040D431B2A00DD31E174
:104E7000291C2020D140821A95406A1E95410D437D
:104E80005B1B5801D0D59B019F09381CFFF700FB25
:104E9000421F974094425FDC141B1F231B1B3A1CCC
:104EA0009F40611C3B1CCA405F1EBB411343002452
:104EB000BAE7131EB8D100230022DB08FF2C04D16F
:104EC000002B47D08020C00303435B025B0ABFE78F
:104ED000211A002944DD002827D0FF2CA4D08020EF
:104EE000C00405431B2900DDF2E0281C2027C84030
:104EF000791A8D40691E8D4105435B19590100D413
:104F000092E70134FF2C59D0734901221A400B401B
:104F10005B08134388E7002D00D07AE777E7013A72
:104F2000002AADD0FF2CA0D17EE7002D00D17BE779
:104F300001390029E1D0FF2CD4D175E7002A1BD11B
:104F4000621CD2B2012A4BDD5F1B7A0123D5EF1A16
:104F50000E1C9AE700237BE75F4BA41A3B4063E7F4
:104F6000002946D1611CC8B2012829DDFF2924D0BF
:104F7000EB185B080C1C57E7002C13D0FF2818D047
:104F80008024E404524223431B2A4DDD0123EB1A03
:104F9000041C0E1C75E7002F00D076E700230022CA
:104FA00000248AE7002B3BD0D243002AEFD0FF2811
:104FB000EAD12B1CFF240E1C36E7FF2400237CE7DC
:104FC000002C5CD1002B00D180E0002D00D12BE71C
:104FD0005B19580100D427E73F4A0124134023E717
:104FE000002C15D1002B40D1002D63D02B1C0E1CA2
:104FF0001AE7002C21D1002B54D0C943002904D03A
:10500000FF284CD01B2958DD01235B19041C75E7D0
:10501000002B19D1002D48D02B1C0E1CFF2403E7B8
:105020002B1C041C0E1CFFE61C1C2026D440B21AAC
:1050300093405A1E93412343A9E7FF282FD0802491
:10504000E40449422343DDE7FF24002D00D1EBE6D1
:105050008022DB08D203134204D0ED08154201D1AF
:105060002B1C0E1CDB00FF24DEE6002D00D1DBE64E
:105070005A1B500100D41CE7EB1A0E1CD4E6002B7F
:105080000DD0FF24002D00D1CEE68022DB08D20314
:105090001342E7D0ED081542E4D12B1CE2E72B1CAC
:1050A000FF24C1E62B1C041CBEE6802300229B04C7
:1050B000FF2402E7231C0022FFE61C1C2027CC4013
:1050C000791A8B40591E8B4123439EE72B1CABE67C
:1050D000012512E70125D3E6FFFFFFFB4302590A32
:1050E0004300C20F1B0E00207E2B0DDD9D2B0CDC20
:1050F000802000040143952B0ADC9620C31AD94076
:105100004842002A00D1081C7047034BD018FBE727
:10511000963B9940F4E7C046FFFFFF7F70B5041E41
:105120003CD0C60F00D04442201CFFF7B1F99E23AB
:10513000251C1B1A962B0CDC083884406402640A78
:10514000DBB2321C6402DB05600AD207184310434D
:1051500070BD992B0ADD0522121A211CD1400A1CB0
:10516000011C1B318D40691E8D411543052801DD51
:10517000421F9540164C2C406A0704D00F22154060
:10518000042D00D0043461010CD59F23181AFF2888
:105190001AD0A401640AC3B2321CD3E70022002350
:1051A0000024CFE7E408FF2B04D06402640ADBB2DA
:1051B000321CC7E7002C04D08020C00304436402E3
:1051C000640A321CFF23BDE7321CFF230024B9E729
:1051D000FFFFFFFB10B5041E33D0FFF759F99E23E4
:1051E0001B1A962B09DC083884406402640ADBB27F
:1051F0006402DB05600A184310BD992B0ADD052205
:10520000121A211CD1400A1C011C1B318C40611E4A
:105210008C411443052801DD421F9440144A22406A
:10522000610704D00F210C40042C00D0043251013E
:105230000AD59F23181AFF2816D09401640AC3B216
:10524000D6E700230024D3E7D208FF2B03D0540273
:10525000640ADBB2CCE7002A06D08024E4031443BE
:105260006402640AFF23C3E7FF230024C0E7C046AB
:10527000FFFFFFFB08B5031C081C191C00F002F817
:1052800008BDFFFF38B5051C05480C1C131C002881
:1052900004D00220291C221C00E000BF38BDC046FB
:1052A0000000000070B50E4B0E4D0024ED1AAD103D
:1052B0001E1CAC4204D0A300F35898470134F8E711
:1052C00000F038FB084B094D0024ED1AAD101E1CF0
:1052D000AC4204D0A300F35898470134F8E770BDFE
:1052E0004059000040590000405900005C5900003E
:1052F00008B5034B011C186800F068F808BDC046EB
:10530000A403002008B5034B011C186800F016F830
:1053100008BDC046A403002010B50023934203D06B
:10532000CC5CC4540133F9E710BD031C82189342CE
:1053300002D019700133FAE77047FFFF30B500293A
:1053400040D004390B68002B00DAC9181E4A1368D4
:10535000141C002B02D14B60116033E099420FD234
:1053600008680A189A4205D113685268C018086084
:105370004A6000E04B60216024E08A4203D8131C9D
:105380005A68002AF9D11D685C198C420BD1096852
:10539000691858181960904214D114685268091994
:1053A00019605A600EE08C4202D90C23036009E0B8
:1053B00008680C18944203D11468526800190860F8
:1053C0004A60596030BDC0465408002070B50323C0
:1053D000CD1C9D430835061C0C2D01D20C2501E087
:1053E000002D3FDB8D423DD3204B1C681A1C211C35
:1053F000002913D00868431B0DD40B2B02D90B6076
:10540000CC181EE08C4202D1636813601AE0486831
:1054100060600C1C16E00C1C4968E9E7144C20681D
:10542000002803D1301C00F025F82060301C291C16
:1054300000F020F8431C15D0C41C03239C43844275
:105440000AD12560201C0B300722231D9043C31A6C
:105450000BD05A42E25008E0211A301C00F00AF842
:105460000130EED10C233360002070BD54080020C1
:105470005008002038B5074C0023051C081C236089
:10548000FCF734FE431C03D12368002B00D02B60B3
:1054900038BDC046640800200023C25C0133002AE6
:1054A000FBD1581E704730B5031C002A07D00C787A
:1054B00001335D1E013A2C700131002CF5D19A1890
:1054C000934203D0002119700133F9E730BDFFFF8B
:1054D0000000000000000000710400008D040000C6
:1054E0007D040000FD200000FD2000000000000001
:1054F00000000000000000008110000029110000E1
:10550000C9100000DD10000005110000C5100000EA
:105510004144584C333435000000000000000000C6
:1055200081040000A10400007D0400000D180000AB
:10553000A9150000000000000100010001000100A9
:105540000100010001000000000000000100010056
:105550000100000000000100010001000100000046
:10556000050E08090D0C06070F0B0044171A1BFF48
:105570008023037003785BB2002BFBDA7047FFFFD8
:10558000420000F840A0044001000000420000F882
:1055900044A0044002000000C00000F800C0044025
:1055A00001000000000000F8049004400200000028
:1055B000000000F80890044004000000C00000F85B
:1055C0001CC0044080000000C00000F810C004406F
:1055D00010000000C00000F808C0044004000000F3
:1055E000C00000F80CC0044008000000800000F873
:1055F0000CB0044008000000800000F810B0044027
:1056000010000000800000F818B0044040000000C6
:10561000800000F81CB0044080000000800000F80A
:1056200014B0044020000000C00000F804C0044092
:1056300002000000800000F800B0044001000000FB
:10564000400000F800A0044001000000400000F805
:1056500004A0044002000000400000F80CA0044038
:1056600008000000400000F808A00440040000000A
:10567000C00000F814C0044020000000C00000F882
:1056800018C0044040000000800000F804B004404E
:1056900002000000800000F808B004400400000090
:1056A000020100F850D0044010000000020100F890
:1056B00054D0044020000000030100F878D00440DA
:1056C00040000000151915191D15FFFF000100000D
:1056D000EF0000201200000000020000180100206E
:1056E00099000000000300002A03002000000000D1
:1056F0000103090402010020000000000203090464
:105700001403002000000000030309042E030020FE
:105710000000000004030904B201002000000000A2
:10572000000000000000000000000000FFFFFFFF7D
:105730000000000000000000BF3F0000D73F000055
:105740008F3F00009F3F0000973F0000A73F0000F1
:10575000113F0000293F0000493F0000513F000079
:105760005B3F0000653F00006F3F00007F3F00008F
:10577000AF3F0000B73F0000E13E0000ED3E0000FB
:10578000F93E0000053F0000E73F0000CB3F00006E
:105790000000000000000000FB400000134100007A
:1057A000CB400000DB400000D3400000E34000009D
:1057B0004D40000065400000854000008D40000025
:1057C00097400000A1400000AB400000BB4000003B
:1057D000EB400000F34000001D40000029400000A5
:1057E0003540000041400000234100000741000017
:1057F0000000000000000000374200004F4200009F
:1058000007420000174200000F4200001F42000044
:1058100089410000A1410000C1410000C9410000D0
:10582000D3410000DD410000E7410000F7410000E6
:10583000274200002F42000059410000654100004E
:10584000714100007D4100005F42000043420000C2
:1058500020490000D2480000004900005A480000DA
:1058600000490000F6480000004900005A480000C6
:10587000D2480000D2480000F64800005A48000014
:1058800052480000524800005248000006490000FB
:10589000C44C0000BE4C0000BE4C0000B44C0000E4
:1058A000144C0000144C0000AA4C0000B44C000042
:1058B000144C0000AA4C0000144C0000B44C000032
:1058C000124C0000124C0000124C00004C4D000025
:1058D0004300FFFF00000000000000000000000087
:1058E00000000000000000000000000000000000B8
:1058F00000000000000000000000000000000000A8
:105900000000000000000000000000000000000097
:105910000000000000000000000000000000000087
:105920000000000000000000000000000000000077
:1059300000000000F8B5C046F8BC08BC9E467047A1
:1059400039040000050F00004D150000291C00005F
:0C595000014000003D41000079420000D1
:10595C0000000000140000003C0001012823260276
:10596C001100C80012000000FFFF0000130A040021
:10597C006808002008000000FFFFFFFF0107081265
:10598C00010002FFFFFF085E048E021401010203F6
:10599C0001001603A9C24D006900630072006F007C
:1059AC0073006F006600740009029900040100A0E6
:1059BC00FA0904000002FF5D01001121000101251C
:1059CC008114000000001302080000070581032069
:1059DC000004070502032000080904010004FF5D10
:1059EC0003001B21000101018340010420168500E6
:1059FC0000000000001605000000000000070583F1
:105A0C00032000020705040320000407058503207A
:105A1C000040070505032000100904020001FF5D8A
:105A2C0002000921000101228607000705860320D8
:105A3C0000100904030000FFFD13040641000101DE
:105A4C000300B20358000000620000006F00000069
:105A5C0078000000200000005300000065000000EA
:105A6C006300000075000000720000006900000077
:105A7C007400000079000000200000004D000000C0
:105A8C006500000074000000680000006F0000005A
:105A9C006400000020000000330000002C00000017
:105AAC00200000005600000065000000720000009D
:105ABC0073000000690000006F0000006E00000021
:105ACC0020000000310000002E000000300000001B
