:1000000000180020C1000000C11E00008D1E00006D
:100010008D1E00008D1E00008D1E00008D1E000034
:100020008D1E00008D1E00008D1E0000C11E0000F0
:10003000C11E00008D1E0000C11E00007D1E0000BC
:10004000C11E0000C11E0000C11E0000C11E000034
:10005000C11E0000C11E0000C11E0000C11E000024
:1000600039100000C11E0000C11E0000C11E0000AA
:1000700079310000053600006D3B0000C11E000014
:10008000C11E0000C11E0000C11E0000C11E0000F4
:10009000C11E0000C11E0000C11E0000C11E0000E4
:1000A00071240000C11E0000C11E0000C11E00001E
:1000B000C11E0000C11E0000C11E0000C11E0000C4
:1000C00038B501F001FF454A454B1A60454A464B99
:1000D0001A60464A464B1A60464B0822197811426C
:1000E00002D019780A431A70434B2A221A7000234F
:1000F000424A43499A188A4204D24249C9580433B1
:100100001160F5E7404B41491A1F181D00238A4230
:1001100002D21360031CF6E73D493E4A5958101CB1
:1001200099500433C02BF7D100239A083A49920022
:10013000521803211940C9001568FF248C40A543BB
:100140002C1C80258D40291C214301331160202B5C
:10015000EBD1324B8A221860314B1A70314B24227A
:100160005A70A0221A709A799107FCD59A79D5060F
:10017000FCD498790C212B4A01400829F9D103219C
:100180001171402151719A799106FCD59A795506E1
:10019000FCD52549254A1160224A20211170997900
:1001A0000C220A400C2AFAD1214A224B1A60224A18
:1001B000224B1A60224B00221A60224B07221A603F
:1001C000214A224B1A6062B602F02CF804F0DAFCE5
:1001D00001F080FE02F0FFFCFEE7C046300004F0B4
:1001E00034800440823F0000388004400100000F4A
:1001F0003C80044002D0074000E00740C0000020DF
:10020000A40300203C520000A80300206408002042
:100210000000000000F9FF1F00E400E008ED00E02E
:100220000050064000400640000001104480044099
:10023000C0000505048004407FBB000014E000E01E
:1002400018E000E010E000E00000202020ED00E0D9
:10025000FFFFFFFFFFFFFFFFFFFFFFFFFFFFFFFFAE
:10026000FFFFFFFFFFFFFFFFFFFFFFFFFFFFFFFF9E
:10027000FFFFFFFFFFFFFFFFFFFFFFFFFFFFFFFF8E
:10028000FFFFFFFFFFFFFFFFFFFFFFFFFFFFFFFF7E
:10029000FFFFFFFFFFFFFFFFFFFFFFFFFFFFFFFF6E
:1002A000FFFFFFFFFFFFFFFFFFFFFFFFFFFFFFFF5E
:1002B000FFFFFFFFFFFFFFFFFFFFFFFFFFFFFFFF4E
:1002C000FFFFFFFFFFFFFFFFFFFFFFFFFFFFFFFF3E
:1002D000FFFFFFFFFFFFFFFFFFFFFFFFFFFFFFFF2E
:1002E000FFFFFFFFFFFFFFFFFFFFFFFFFFFFFFFF1E
:1002F000FFFFFFFFFFFFFFFFFFFFFFFFFFFFFFFF0E
:10030000FFFFFFFFFFFFFFFFFFFFFFFFFFFFFFFFFD
:10031000FFFFFFFFFFFFFFFFFFFFFFFFFFFFFFFFED
:10032000FFFFFFFFFFFFFFFFFFFFFFFFFFFFFFFFDD
:10033000FFFFFFFFFFFFFFFFFFFFFFFFFFFFFFFFCD
:10034000FFFFFFFFFFFFFFFFFFFFFFFFFFFFFFFFBD
:10035000FFFFFFFFFFFFFFFFFFFFFFFFFFFFFFFFAD
:10036000FFFFFFFFFFFFFFFFFFFFFFFFFFFFFFFF9D
:10037000FFFFFFFFFFFFFFFFFFFFFFFFFFFFFFFF8D
:10038000FFFFFFFFFFFFFFFFFFFFFFFFFFFFFFFF7D
:10039000FFFFFFFFFFFFFFFFFFFFFFFFFFFFFFFF6D
:1003A000FFFFFFFFFFFFFFFFFFFFFFFFFFFFFFFF5D
:1003B000FFFFFFFFFFFFFFFFFFFFFFFFFFFFFFFF4D
:1003C000FFFFFFFFFFFFFFFFFFFFFFFFFFFFFFFF3D
:1003D000FFFFFFFFFFFFFFFFFFFFFFFFFFFFFFFF2D
:1003E000FFFFFFFFFFFFFFFFFFFFFFFFFFFFFFFF1D
:1003F000FFFFFFFFFFFFFFFFFFFFFFFFFFFFFFFF0D
:10040000FFFFFFFFFFFFFFFFFFFFFFFFFEFFFFFFFD
:1004100010B5064C2378002B07D1054B002B02D0DA
:10042000044800E000BF0123237010BDA403002096
:10043000000000003C52000008B5084B002B03D020
:100440000748084900E000BF07480368002B03D0B5
:10045000064B002B00D0984708BDC04600000000A6
:100460003C520000A8030020A4030020000000006C
:10047000014B03607047C046B84D00007047FFFF56
:10048000014B03607047C046B84D000010B5034BE8
:10049000041C036002F0A7FB201C10BDB84D000037
:1004A00010B5034B041C036002F09DFB201C10BD23
:1004B000B84D000010B5041C006804F093FB201C2C
:1004C00010BD022008B5011C01F06EFD03200221C1
:1004D00001F06AFD0020022101F066FD01200221E9
:1004E00001F062FD0420022101F05EFD05200221E1
:1004F00001F05AFD0620022101F056FD07200221DD
:1005000001F052FD0820022101F04EFD09200221D8
:1005100001F04AFD0D20022101F046FD0E200221CE
:1005200001F042FD0C20022101F03EFD0B200221D2
:1005300001F03AFD1020012101F036FD11200121CA
:1005400001F032FD1020002101F0FCFC11200121FE
:1005500001F0F8FC1420012101F026FD16200121F4
:1005600001F022FD08BDFFFF10B5534C201C01F027
:10057000A9F8002804D0201C01F0C2F84F4B1870D5
:100580004F4C201C01F09EF8002804D0201C01F0E4
:10059000B7F84A4B58704B4C201C01F093F80028D8
:1005A00004D0201C01F0ACF8444B9870464C201C41
:1005B00001F088F8002804D0201C01F0A1F83F4B7E
:1005C000D870424C201C01F07DF8002804D0201C7B
:1005D00001F096F8394B18713D4C201C01F072F86F
:1005E000002804D0201C01F08BF8344B5871394C92
:1005F000201C01F067F8002804D0201C01F080F8CE
:100600002E4B9871344C201C01F05CF8002804D06B
:10061000201C01F075F8294BD871304C201C01F0DA
:1006200051F8002804D0201C01F06AF8234B1872FE
:100630002B4C201C01F046F8002804D0201C01F0AF
:100640005FF81E4B5872274C201C01F03BF8002825
:1006500004D0201C01F054F8184B9872224C201C36
:1006600001F030F8002804D0201C01F049F8134BA9
:10067000D8721E4C201C01F025F8002804D0201C44
:1006800001F03EF80D4B1873194C201C01F01AF8BC
:10069000002804D0201C01F033F8084B5873154C87
:1006A000201C01F00FF8002804D0201C01F028F8CD
:1006B000024B987310BDC046C403002030050020D3
:1006C00064050020E403002020050020DC04002055
:1006D000AC040020BC04002000050020CC04002055
:1006E0004005002010050020D4030020F004002065
:1006F0009C0400205005002010B50A240121102080
:1007000001F020FC322001F073FD1020002101F0E7
:1007100019FC013C322001F06BFD002CEED110BD24
:1007200070B50269C56883680468954202D20135D4
:10073000C56004E09D0065594668751B45609D00D5
:1007400061514468013361184160934200D3002332
:10075000836070BD38B5C468002C0BD0406804F0CD
:100760004DF9051C201C04F0A5F9011C281C03F000
:10077000D5FE00E0002038BDF0B5A94DA94CE878C1
:100780008FB029786A78AB780090201C01F011F8BE
:100790002A79201C0121002A00D00A1C00F0BAFF8F
:1007A0006A79201C0221002A00D0012200F0B2FF49
:1007B000AA79201C0321002A00D0012200F0AAFF00
:1007C000EA79201C0421002A00D0012200F0A2FFB7
:1007D000AA7A201C0721002A00D0012200F09AFFEB
:1007E000EA7A201C0821002A00D0012200F092FFA2
:1007F0002A7A201C0521002A00D0012200F08AFF5D
:100800006A7A201C0621002A00D0012200F082FF13
:100810002B7B201C0B21002B03D06B7B0122002B98
:1008200000D1002200F076FF2A7B201C0921002A3B
:1008300000D0012200F06EFF6A7B201C0A21002AF2
:1008400000D0012200F066FFAA7B201C0B21002AA9
:1008500000D0012200F05EFF734B1B78002B32D0DA
:1008600005A9724800F0C8FE714B0B991E68714BC8
:100870000A9F1888704B03911B6802936F4B1A688C
:100880006F4B1B689A421ED900B204F0B7F8051CE2
:10089000291C381C03F068FF011C301C03F0D2FC3B
:1008A00004F08CF8291C06B2039803F05DFF011CCC
:1008B000029803F0C7FC04F081F8122103B2321C45
:1008C000201C00F093FF5F4B1B78002B00D19CE0B5
:1008D0000F2001F047F95C4F03903A685B4D831A93
:1008E0001A1C0932122A02D94B33962B03D9281C21
:1008F0000399FFF715FF281CFFF72CFF4F4D544EAF
:100900002B6831688B4200D87CE004F057F8514ADC
:100910002B6812880290D3184F4A336013884F4ACD
:10092000984250DD1188193988424CDA3B680398A7
:100930001A1A4B4B1B889A420EDD00221321131CFE
:10094000201C00F053FF2B68FA2189005B183360EC
:10095000414E33883B6060E0029804F04FF8414913
:1009600003F0DCFD4049061C03F0FEFEFE21890574
:1009700003F068FC3D49071C301C03F0F5FE011C28
:10098000381C03F0CBFD3A4903F0EEFE04F016F8F4
:10099000384B00B20022995E374B5A3800269A5FD6
:1009A000364B0093002302F00BF9132103B200220F
:1009B000201C00F01BFF284E3388029E19339E42F4
:1009C0001DDD2A680CE01288029E193A96420DDB62
:1009D0000022201C1321294B00F008FF174E32681B
:1009E000FA208000164B12181A6008E0029E9E4200
:1009F00005DA0022201C1321131C00F0F7FE204B07
:100A0000029E1E60104B039E1E60617F142001F049
:100A10000FFB217F162001F00BFB0FB0F0BDC0468D
:100A20003005002008040020D2000020F40300203C
:100A300074050020CE00002078050020F405002079
:100A400094040020CA0000209804002078040020AC
:100A5000C003002060050020CC000020D000002052
:100A6000C800002000009B438BFD253EF775203E0B
:100A70000000C842EC040020900400200080FFFF2A
:100A80008C04002010B5FFF76FFDFFF775FE054CD5
:100A9000201C00F039FF201C00F0BAFE201C00F0E2
:100AA00089FF10BD0804002070B500240D4B1B68A1
:100AB0009C4210DA0F2001F055F80B4E051C3268ED
:100AC000831A0933122B03D80848291CFFF728FE84
:100AD00035600134EAE70548FFF73CFE03F06EFF9E
:100AE00080B270BDC400002098040020780400206B
:100AF000F8B5FFF701FE224E224D3388224C013318
:100B00002B80201CFFF726FE03F058FF1C4A138899
:100B10006333834227DB0F2001F024F81B4F061CB0
:100B20003A68831A0933122B03D8201C311CFFF7B3
:100B3000F7FD3E60E5E70F2001F014F8134F061CA7
:100B40003A68831A0933122B03D8201C311CFFF793
:100B5000E7FD201C3E60FFF7FDFD03F02FFF2B8813
:100B6000984200DD2880064A13889842E3DC2A88F0
:100B70000021074800F047FFFFF7BEFDF8BDC04663
:100B8000CC000020D0000020780400209804002031
:100B9000E805002030B58BB0FFF793FC454B464C81
:100BA0001B78002B08D0201C00F090FC002803D1FB
:100BB000FFF7A2FDFFF7A0FD201C002100F0B4FC10
:100BC000FA20800001F014FB01A9201C00F014FDA4
:100BD0003A4B0022985E03F011FF0699041C03F0C3
:100BE000C3FD80231B06C018354B07991860201CD5
:100BF00003F0BAFD8022334B120680181860FFF70D
:100C000053FF314B314C18801D1C002800D120703F
:100C10002378002B05D02E48002100F0EFFE2D4B4D
:100C200018800C2001F0AEF9002801D1FFF760FF19
:100C30002378002B3CD0288803F0E0FE264903F0FF
:100C40006DFC2649041C03F08FFDFE21890503F08D
:100C5000F9FA2349051C201C03F086FD011C281C01
:100C600003F05CFC1F4903F07FFD03F0A7FE1E4B61
:100C70001880184B188803F0C1FE174903F04EFC8A
:100C80001649041C03F070FDFE21890503F0DAFA11
:100C90001349051C201C03F067FD011C281C03F0F0
:100CA0003DFC104903F060FD03F088FE0F4B1880F7
:100CB0000BB030BDD2000020F4030020CE00002095
:100CC0007405002078050020CC000020CA00002018
:100CD000E8050020D000002000009B43D5CA843CDA
:100CE000F775203E0000C842EC040020900400206C
:100CF0003A4B70B51E683A4C0025B0002661E5609D
:100D000003F066FFA560031C20606560201CB542EF
:100D100004D0AA00002199500135F8E7314D32493D
:100D20002A1C03F017FF314C3149201C00F058FBFE
:100D30002A1C201C2F4903F00DFF022114222E48EB
:100D400000F094FC032114222C4800F08FFC0021B9
:100D500014222B4800F08AFC01211422294800F0BB
:100D600085FC04211422284800F080FC052114226F
:100D7000264800F07BFC06211422254800F076FC72
:100D800007211422234800F071FC08211422224874
:100D900000F06CFC09211422204800F067FC0D21B2
:100DA00014221F4800F062FC0E2114221D4800F09E
:100DB0005DFC0C2114221C4800F058FC0B2114226D
:100DC0001A4800F053FC0A211422194800F04EFC86
:100DD00001211022174800F041FD70BDC400002021
:100DE00078040020C0000020B5040000F4030020B7
:100DF0003930000081040000C40300206405002095
:100E0000E403002020050020DC040020AC040020C6
:100E1000BC04002000050020CC0400204005002078
:100E200010050020D4030020F00400209C040020C2
:100E30005005002008040020044BD878044BC0B2B1
:100E40001A68904200D018607047C04600600640A3
:100E5000D400002008B5FFF7EFFF02231842FAD0B4
:100E6000014AD37008BDC0460060064010B50C4B67
:100E7000041C1B78002B04D10A4A181C1278002A83
:100E80000CD0094A1378202B03D9012323710020A9
:100E900004E0581C1070054A0120D15410BDC04612
:100EA000E2050020A5050020E305002084050020C0
:100EB0007047FFFF024B1878024B1B78C01A70472F
:100EC000E1050020E0050020064A0749137809786B
:100ED000994204D9591C1170044AD05C01E00120E8
:100EE00040427047E0050020E1050020A6050020F3
:100EF000054B064A1B7812789A4202D9044AD05C04
:100F000001E0012040427047E0050020E10500209B
:100F1000A6050020F8B50E4B071C1878141C0028F5
:100F200003D10C4B1B78002B10D00B4E21233578AE
:100F30005B1B9C4202D901223A711C1C0748221CEF
:100F400040192D1903F058FE3570201CF8BDC0461D
:100F5000E2050020A5050020E3050020840500200F
:100F6000002303710373034BFA229200083382605B
:100F700003607047D04D0000094B1B685A060ED520
:100F8000084A094B914201D81F2205E0074A9142C5
:100F900001D8122200E002225A7002229A71704790
:100FA000348004407F1A0600006006403F420F0074
:100FB000174A002310B51370164A402411682143C4
:100FC000154C1160A370154B1B78122B03D199227D
:100FD0009200134B04E0112B03D19922114B920084
:100FE0001A60114B1B78132B03D1992292000F4BDF
:100FF00004E0102B03D199220D4B92001A600D4989
:10100000FFF7BAFF202363718023A37010BDC04691
:10101000A50500203480044000600640D300002075
:101020000CA0044004A00440D800002008A0044004
:1010300000A00440A086010038B53C4C1023E578A0
:10104000EDB21D4203D140222A4004D127E0E370D3
:101050006B06F8D468E004231D40354B17D00022FE
:101060001A70344B344D1B682A70934200D0984755
:101070002A78324B002A02D1012129701A70D0221D
:10108000A2701B78012223712D4B1A704AE00122B5
:101090001A702C4B1D70C023A370237942E0A379F2
:1010A0006021DBB2194060290CD120218B431F49FC
:1010B0008B71254B1B68002B04D024490A70214AF0
:1010C00010789847A1781022184B0A4016D00122B8
:1010D00015400FD11A4918480A780078904205D96E
:1010E000501C087015498A5C1A7100E01D71D023EC
:1010F000A37017E0C0229A701B7913E014490A709C
:101100009A7920210A439A710E4A19791378C9B243
:101110001F2B07D806480078002803D0581C1070F1
:101120000C4AD1540223E37038BDC046006006402B
:101130007C050020C8050020E30500208405002070
:10114000E4050020E105002080050020E0050020E6
:10115000CC050020A6050020044B054A4900197063
:1011600001231370034A13707047C04684050020A2
:10117000E2050020E3050020F8B5284C1223E370B7
:10118000A3780E1C9A0601D5B42313E0244F3D68C2
:10119000FFF752FE2023184009D03B685B1B0F2B42
:1011A000F6D90023A3708023A370042034E01D4BE4
:1011B0001870B023A370FFF73FFE8306FBD5002510
:1011C000194B1B78AB421FD9184B5B5D2371FFF79E
:1011D00033FE820701D48306F9D40223E3700F4F54
:1011E000FFF72AFEC20601D4830603D48023BB7016
:1011F00004200AE0C20704D56B426B410320C01AE9
:1012000005E00135EDB2DBE70020002E01D08023A0
:10121000A370074B00221A70F8BDC046006006405C
:10122000F4050020A5050020E3050020840500202A
:10123000E2050020F8B51F1C314B161C00221A7065
:10124000304B314D1A701222EA70AA780C1C9306AA
:1012500001D5B42307E0FFF7EFFD20231840FAD1B2
:101260002A4B1870B023AB70640001232343DBB218
:101270002B71FFF7EFFDFFF7DFFD1123224C184024
:1012800003D08023A370002038E0002E05D1A023D6
:10129000002F00D08023AB7030E0A823012E00D0B7
:1012A000A023A3702B790024012E11D0013EF6B2A9
:1012B000FFF7D0FD012E01D1A823AB701F2C05D85C
:1012C0002979134A631C1155DCB2EDE72B79EBE762
:1012D000FFF7C0FDB022261C0B4BAA701F2C05D8AF
:1012E0001A790B4B0134E4B29A5500E01B79002FB8
:1012F00001D08023AB70034B201C1C70F8BDC0468E
:10130000E0050020E105002000600640A505002062
:10131000A605002008B5C9B2D2B20123FFF78AFFA3
:1013200008BD08B5C9B2FFF717FF08BD08B5012110
:10133000FFF722FF08BDFFFF08B50248FFF710FEC8
:1013400008BDC046D0050020F0B585B0071C01914E
:101350000292039307250024381C0021012600F087
:10136000F1FD039B311CA9401940029800F0EAFDF1
:10137000381C311C640000F0E5FD0198E4B200F077
:1013800001FE002800D03443013DE5D2201C05B009
:10139000F0BDFFFF38B528220C1C051C081C0021DD
:1013A00003F033FC201C0A490B2203F0ECFC002361
:1013B000E372AD686362074B0122A361064BE260F2
:1013C000E361064B062225616261236238BDC04697
:1013D000F04D00000AE81CC30AE81C43A3AF203DFF
:1013E000044B8160083303600023037301234374BB
:1013F0007047C046F84D000070B50E1C417C041CBF
:10140000151C002910D0124C5321201CFFF789FF16
:10141000311C201CFFF72AFD201C291CFFF726FD8C
:10142000201CFFF783FF12E0007C00F08BFDE17BC6
:10143000A27B331C607BFFF787FFE17B607BA27B95
:101440002B1CFFF781FF207C012100F07BFD70BD8C
:10145000D005002038B50D1C417C041C002915D096
:10146000164C5321201CFFF75CFF291C201CFFF7A2
:10147000FDFC201CFFF75AFF53210122201CFFF71F
:1014800049FF201CFFF720FDC0B215E0007C00F0F2
:1014900059FD80232B43E17BA27B607BFFF754FF48
:1014A000E17BA27BFF23607BFFF74EFF0121051C40
:1014B000207C00F047FD281C38BDC046D005002028
:1014C00008B50021FFF7C6FF08BDFFFF38B5457C12
:1014D000041C002D03D01348FFF76AFD13E0007CC5
:1014E000012100F061FD607B012100F05DFD607B6A
:1014F000012100F027FDA07B012100F055FDE07BDC
:10150000291C00F051FD201CFFF7DAFF0023E5281D
:1015100005D1201C2D210822FFF76EFF0123181C86
:1015200038BDC046D005002038B50D1C3121041C43
:10153000FFF790FFF023082218402A43024331218D
:10154000201CFFF759FF257338BDFFFF70B50D1C38
:10155000417C041C00291CD01E4C5321201CFFF789
:10156000E0FE291C201CFFF781FC201CFFF7DEFE9B
:1015700053210222201CFFF7CDFE201CFFF7A4FC04
:10158000051C201CFFF7A0FCC0B20002EDB22843EE
:101590001EE0007C00F0D6FCC0232B43E17BA27B45
:1015A000607BFFF7D1FEE17BA27BFF23607BFFF72F
:1015B000CBFEE17B061CA27BFF23607BFFF7C4FE12
:1015C00005022E43207CB5B2012100F0BBFC281C93
:1015D00000B270BDD005002008B53221FFF7B6FF7C
:1015E00008BD08B53421FFF7B1FF08BD08B53621A5
:1015F000FFF7ACFF08BDFFFF70B52426321C0C1CA2
:10160000051C081C002103F000FBAB68266063602A
:10161000012600232361A660281CFFF7DDFF03F0ED
:10162000EDF9104903F0A0F80F4903F09DF860614F
:10163000281CFFF7D6FF03F0E1F90A4903F094F8FC
:10164000094903F091F8A061281CFFF7CFFF03F0D0
:10165000D5F9044903F088F8034903F085F8E061FF
:10166000301C70BD6F12833B0AE81C4138B5002363
:101670008360064B041C1B6842600360081C0D1C41
:1016800000F080FC20736573201C38BDF405002039
:1016900038B5041C407B00F075FC237B83420CD0E2
:1016A000074A236811686568C91A0023A94205D34F
:1016B000126820732260012300E00023181C38BD4B
:1016C000F405002038B5041CFFF7E2FF002802D023
:1016D0000023A3600BE0A268002A0BD0074B25680B
:1016E0001968491B914205D31B68A0602360012043
:1016F000A07301E00023A37338BDC046F4050020A9
:10170000827B031C0020824203D0187B4342584155
:10171000C0B27047012902D1C378102142E00229EA
:1017200002D1C37820213DE0032902D1C3784021B2
:1017300038E0042909D1C378002A03D0802252421C
:10174000134334E07F22134031E0052902D1C378EE
:10175000012127E0062902D1C378022122E00729CE
:1017600001D1402112E0082909D18378002A03D051
:101770008022524213430FE07F2213400CE00929DC
:1017800001D1102102E00A2908D120218378002A02
:1017900001D00B4300E08B43837009E00B2907D194
:1017A000C3780421002A01D00B4300E08B43C370AF
:1017B000704770B504AC257884780F26B4430029AF
:1017C00001D0012202E0002A01D0022214438470D9
:1017D000002B04D0002D08D18378042203E0002DD3
:1017E00003D0837808221343837070BD122906D179
:1017F0008271037212121B12C271437207E0132925
:1018000005D18272037312121B12C27243737047A6
:1018100010B50549041C01F0A3F902230022E2548B
:1018200001330D2BFAD110BD28320000F8B5071C8A
:10183000061C0D1C141C64376536012909D1101CC7
:1018400000F0B2FB201C002100F07CFB3D703470E6
:1018500002E000233B703370F8BDFFFFF0B51425A4
:1018600085B0041C0291039200212A1C03F0CDF9DB
:101870000A26657001220025201CA270291C321C3A
:101880006561A561257765771E3003F0BEF91D4FB0
:10189000201C391C321C283003F0AEF9231C3233D3
:1018A000291C321C181C019303F0AFF9019A012383
:1018B000201C1370B919321C3C3003F09DF9201C18
:1018C000391C321C1431463003F096F9391C201CA7
:1018D000321C1E31503003F08FF9201C291C321CA1
:1018E0005A3003F092F9231C64331D705D709D70B3
:1018F000201CA56602991D72039AFFF797FF201C12
:1019000005B0F0BD184E000038B5031C64331B78D9
:10191000012B1AD10D4B816E1A68041C531A6C34BA
:10192000962B0DD92378051CC11858318978663556
:1019300001332970826623706530007800F002FB65
:1019400023780A2B01D10023237038BDF405002031
:1019500010B5041C5A30012901D00A2902D1211CDA
:10196000283119E004230A1C9A43022A02D1211CBF
:10197000323111E0032A02D1211C3C310CE0042950
:1019800001D0082902D1211C463105E0052901D0EA
:10199000092908D1211C50310A2203F02DF96C3499
:1019A0000023237004E0211C1E310A2203F024F9D5
:1019B00010BDFFFF10B5041C01F0C6F8002819DDAA
:1019C000201C14300C4901F091F8A28A80231B01DD
:1019D0009A4205D1E37D01202377237E63770AE0D5
:1019E000237D0320012B06D1201CA17DFFF7B0FF32
:1019F000022000E0002010BD2832000008B5081CBD
:101A000000F024FA08BD08B5081C111C00F02AFAE1
:101A1000012008BD014B64221A607047E8050020D0
:101A2000F0B572B61B4B1A78002A30D01A4A1068EB
:101A30001A4A16681A4A301815681A4A4019146862
:101A4000194A00191168194A401812681849801873
:101A500080B2184A4008104380B2086016481749FF
:101A600009680768164879180668164889190568CC
:101A7000154849190468154809190068091889B2F8
:101A800049080A43124992B20A6000221A7062B6EB
:101A9000F0BDC046ED05002038B003403CB0034027
:101AA00040B0034044B0034048B003404CB0034052
:101AB0002CB003400080FFFF5CB0034058B00340EF
:101AC00060B0034064B0034068B003406CB00340B2
:101AD00030B003401B4B1C4A19781C4B082901D11C
:101AE000002102E00A2903D138211160132206E007
:101AF0000C2901D1342100E03C21116012221A602E
:101B0000134B1A78134B002A01D0002200E0012267
:101B10001A60114B1A78114B012A01D880220CE06F
:101B2000042A01D8842208E0082A01D8852204E08A
:101B3000102A01D8862200E087221A60084B012271
:101B40001A707047D900002008B003400CB0034061
:101B5000EF05002020B00340DA00002024B003404D
:101B6000ED05002070B5031E0C2B0DD9021C0E3A9A
:101B7000D2B20C2A07D91A1C263A193B0020DBB234
:101B8000012A32D800E0131C184AD45C184B1B7889
:101B9000002B01D0FFF744FF72B6164B10226106EE
:101BA00005D51968914319603F231C4002E019686C
:101BB0000A431A60104B114D01221C602A7062B654
:101BC0001E1C72B633681A0608D50D4B1868002320
:101BD0002B7062B60B4B1B78184106E02B78002B5C
:101BE000DBD062B601F004F8EBE770BD404E0000B8
:101BF000ED0500200CB0034000B00340EE050020CE
:101C000010B00340EC0500200C4B8022196812062E
:101C10000A431A600A4B1A780A4B002A01D1D022D3
:101C200000E090221A70084B984200DD181CC34354
:101C3000DB171840054B18807047C0463C800440B5
:101C4000EF05002021F00340FF0F000000F00340EB
:101C50000E4B10B51940C023DB0419430C4B19601F
:101C60000C4B1A6072B60C4C01230343201C98479E
:101C700062B622787023134000D02370074B802275
:101C80001968D2000A431A6010BDC046FCFFFF006D
:101C90000400024008000240000002400C3000F046
:101CA000F8231B021988084A914203D1074A023BD4
:101CB000138008E08022023352029342F2D10222C2
:101CC000024B52421A807047FFFF0000F0050020CF
:101CD00038B50B4D041C2A88002A02D1FFF7E0FF1B
:101CE0002A88FF207F2C0AD8F8231B029A4206D3A9
:101CF0001988CDB2A54200D1080A0233F6E738BDF3
:101D0000F0050020F0B5484FA7B0041C388802AE9B
:101D10000D1C01904549301C0E2202F06DFF7F2CF6
:101D200000D97FE00199002903D1FFF7B9FF3E4AAE
:101D300011883F4B023199420CD83B482A02144388
:101D400001808A0702D43B4A224301E022041A435D
:101D5000301C65E000231820C018FF2269460133BB
:101D60004254802BF7D1F8231B021988CAB27F2A6C
:101D700002D8090A06A881548022023352029342F3
:101D8000F3D106A90D552C4B2C4D2B6072B62C4C63
:101D900001233343201C0193984762B622787023B5
:101DA00013402A1C251C002B00D02370254C8020BA
:101DB0002368C00003432360234B136072B6204F97
:101DC0000199381C884762B62D78702380221D4007
:101DD000D200002D00D03D702368002713432360FC
:101DE000F824240206AAD35DFF2B0ED0A00702D44C
:101DF0001D023D4308E03A0415431B061D43301CF9
:101E0000211C2A1CFFF724FF02340137802FE9D15F
:101E100005490C80A20705D5064A301C2A43211C1F
:101E2000FFF716FF27B0F0BDF0050020504E000070
:101E3000FFFF00000000FFFF00F80009040002405F
:101E4000000002400C3000F000FC000938B5041C12
:101E5000FFF73EFF051C601CFFF73AFF0002054339
:101E6000A8B238BD38B5051C0C1CC9B2FFF74AFF33
:101E7000681C210AFFF746FF38BDFFFF024B1A68B6
:101E800001321A607047C046F405002010B50B4CB3
:101E900023685A0301D500F0EBFA23685A0501D5EF
:101EA00001F06AF923681A0501D501F0ABFB23683C
:101EB000DA04ECD501F05AFEE9E7C046348004406C
:101EC00008B5FFF7E3FFFFFF014B00221A607047E0
:101ED000008104407047FFFF024A13681818106021
:101EE000181C7047DC000020FEE7FFFFEFF31380B3
:101EF000002821D1EFF31082002A1FD1EFF30583D0
:101F0000002B0FD0101C0F2B0ED91A1C103A920860
:101F10000B49032092000340521883401068D840B8
:101F2000C0B201E080204000EFF31182002A05D00A
:101F3000824203D2101C01E0012040427047C0469B
:101F400000E400E010B51A2818D80C2358430C4AB6
:101F5000835810181C7D027A224205D0002901D036
:101F60001A710BE01A7209E043681A68002902D05E
:101F700003210A4301E002218A431A6010BDC046D2
:101F8000604E000000231A280AD80C235843054A43
:101F900081581018027A0B7C13405A1E9341DBB211
:101FA000181C7047604E0000F0B51A283DD80C2769
:101FB0003D1C45431D4A54196368161C012901D074
:101FC000042912D1784332583018147D007A204306
:101FD0001075A22252001A602022042901D119682A
:101FE00014E0196891430A1C1EE0AA58247A107D57
:101FF000A0431075002902D08A1E012A12D880221F
:1020000052001A60022903D11A6803210A430BE027
:1020100003290AD11A6802210A431A601A680121A9
:102020008A4301E00422FF321A60F0BD604E0000D6
:1020300038B50A1C041C434B1A280ED11B780B2BF5
:1020400003D80C21CB1A9A4003E00C2B01D00C3B97
:102050001A41101CFFF7D8FD72E0197801252B1CDE
:102060008B40002A01DC002102E09A4205D3291CA2
:10207000FFF768FF201C291C60E0231C103B03387D
:10208000012B01D8304B05E0C3B2012B01D82F4BF7
:1020900000E02F4B1B6801335343CB40142843D837
:1020A00001F0EEFF353B421F4242151A42424242C6
:1020B00042292F424224420B1000264A1360264A2E
:1020C000264B2FE0264A1360234A264B2AE0264A55
:1020D0001360214A254B25E0254A13601E4A254BF3
:1020E00020E0254A13601C4A244B1BE0244A13605D
:1020F000194A244B16E0244A1360D1229200234B44
:1021000010E0234A1360D1229200224B0AE0224AB7
:102110001360D1229200214B04E0214A1360D122A6
:10212000204B92001A600BE001217F2A00DC002185
:10213000C9B2201CFFF706FF201C0121FFF734FF66
:1021400038BDC046E00000200890034008A00340CE
:1021500008800340108003404404000004B00440A1
:102160001880034008B00440208003400CB00440B5
:102170002880034010B004403080034010C0044069
:102180003880034014C004401090034000A0044075
:102190001890034004A0044010A0034004900440A1
:1021A00018A003400890044072B60C4B0C491A6802
:1021B0000C4B1B68096862B6480104D53221914274
:1021C000894149425B18FA20800043430648821A3D
:1021D00006484243920D98187047C04618E000E048
:1021E00004ED00E0F40500207FBB00005555010020
:1021F00038B5041CFFF7D8FF051C002C0FD0FFF7E3
:10220000D3FF074B401B984206D9013C002C06D057
:10221000FA239B00ED18F2E700F0EAFCEFE738BD87
:10222000E70300001C4B8022D20510B51A60802203
:1022300012061A60194B002018601949194B1A4AE6
:10224000196028231360194A194C1360194A136046
:10225000194A1360194A1360194A1360092222604F
:10226000184C2060184C2160184C2360184C2360D7
:10227000184C2260184C20601848016018490B6007
:1022800018490B60184B1A60FFF724FCFA20FFF77F
:10229000AFFF00F08FFB10BD00E100E004800340C1
:1022A000FFBF0000088003400C80034014800340FF
:1022B000008003401C800340248003402C800340A6
:1022C0003480034004900340089003400C90034086
:1022D000149003400090034004A0034008A0034072
:1022E0000CA0034014A0034000A00340F0B50B4F26
:1022F00002223B780A4E1A43D2000A4DB41860609D
:1023000028788824002800D0C82409040C43B4503D
:1023100001225040534028703B70F0BD3C06002025
:1023200000F8FF1F8C060020431E10B5052B0FD8A8
:1023300072B6084A99008858002807D044685B00A4
:102340008C50054A01889C5A611A995262B600E085
:10235000002010BD2406002054080020431E002049
:10236000052B09D872B6054A9B009B58002B02D05A
:1023700001305B68FAE762B67047C0464806002045
:1023800038B572B60123164A9A18013A1278110725
:102390001CD5144A5C01A5589900002D05D11319CC
:1023A00008305860104BA3500AE001242143C900B3
:1023B0008C58002C0AD15318083058600B4B8B50A6
:1023C0000B4B1A78013A1A7062B608E00133072BFA
:1023D000D9D162B6064B00221A7000F05FFB38BDFF
:1023E000A44F000000F8FF1F88004000C800400014
:1023F00082060020421E10B5052A30D80223800034
:102400001843174BC0001B1872B6164CA05C03286B
:1024100009D801F035FE140216050833022011E038
:10242000083304200EE01048920014580F4B002C83
:1024300001D1115001E09858416099500EE00320FD
:1024400000E00520A0540A1C08325A6088221807B0
:1024500000D5C822098809040A431A6062B610BD73
:1024600000F8FF1F14060020480600206006002028
:10247000F7B5B9480378011CDBB25A0711D5B74A42
:102480001278002A0AD0B6480278D2B2002A05D0C3
:10249000013AD2B20270002A00D100BEAE4D042231
:1024A0002A7008251A1C2A4000D11EE2AD4BAE4C02
:1024B0001B78DBB29A081E09D200002E00D0A7E1DB
:1024C000A21817685168B806000F01380C2800D907
:1024D0009BE101F0DFFD3D013D019A019A019A0166
:1024E0009A019A019A0177019A019A019A010D00C5
:1024F0000B689E4D49689E4869609E49002711609F
:102500009D4901222B600A709BB2A02107602761C0
:10251000A761C9008B4200D1F2E015D8822B00D10F
:10252000AAE007D8802B00D0E6E0944C27706770B3
:102530000227E6E081225200934200D1ABE0904AAC
:10254000934200D1B6E0D7E0882109018B4200D147
:102550008CE008D88B495B18012B00D9CCE06A8845
:10256000A988894BBAE090221201934200D0C3E0BF
:10257000AA787A4B1A70E3191A6A120603D5586AB8
:10258000083800F08BFA0837C02FF4D10026371C2A
:102590007E4BF058002805D04168019100F07EFA8A
:1025A0000198F7E77A4B794AF0507A4B9051F058FE
:1025B000002805D04168019100F070FA0198F7E712
:1025C000744A754B9051754AF0507B00D052744B51
:1025D000F85C0238032807D801F052FD0204020417
:1025E000002200E00122DA5501370436062FCFD150
:1025F0006C4F00233B7001266B4BF2186B4B920023
:10260000F318013B1B781370180720D500F028FA47
:102610007301002805D0E21808305060644AE25087
:1026200003E0E0503B7801333B7000F019FA0122DF
:10263000B3001343DB00002805D0E21808305060D7
:102640005C4AE25003E0E0503B7801333B70B2005B
:1026500002211143C9000023635003210A438A4029
:102660000136A350072EC7D11F1C49E03B4B434CFA
:102670001B78171C237044E0AB88062B3CD83F4CDA
:102680004D499B00277067705B181B7802273B42FF
:1026900037D0227035E0AA887F231340062B2BDC2D
:1026A0006F88002F28D1444A9B009B181A7802217A
:1026B0008A430DE0AA887F231340062B1CDC6F8819
:1026C000002F19D13C489B001B181A7802210A439D
:1026D0001A7015E01888904204D00C335C68002C06
:1026E000F8D109E058888842F7D1120A032A01D1AB
:1026F000277806E01F8904E02F4B0F221A7024E090
:102700003C1CEB889F4200D91F1C3E1E082E00D99E
:102710000826201C311CFFF7E9FDA419BF1B03D1BB
:102720003D1C082E04D010E00825BD4200D93D1CF8
:10273000201C291CFFF7DAFD64197F1B01D1082D2D
:1027400003D10B4D1D4B2C601F8001221C4B5BE005
:10275000084B136059E0C046802007408B060020DC
:102760003D0600209020074000F8FF1F780600205B
:10277000F8050020C80008008C0600208306002011
:102780000203000080F9FFFFAC4F00002406002088
:10279000FC050020480600206006002054080020A8
:1027A000140600208206002030C80110A44F00004B
:1027B00088004000C8004000C0200740800600207C
:1027C00094200740644E3768002F13D06348058873
:1027D0002C1E082C00D90824211C381CFFF786FD6C
:1027E0002D1B5E49ADB20D80002D01D1082C00D10A
:1027F0003D1935605A4BA0221988D200914204D16C
:1028000000225A709A78574B1A700122564B60E09A
:10281000A4186068013E0838F6B22B4036D000F0AC
:102820003DF95249B0004258514B002A1BD055681F
:102830004550111C985D0831616003280BD801F0E8
:102840001FFC02040608032104E0022102E0052126
:1028500000E0042199558823270700D5C823128852
:10286000120413433CE0985D032808D801F008FCEB
:1028700039390204002200E001229A5531E02C404F
:10288000624262410324A41A9C552AE062880280B5
:10289000002A20D0374D43804360B3005F5936494A
:1028A000002F01D1585101E0CD586860C850334B1A
:1028B0007600F15A5218F25200F0D2F8002804D0F3
:1028C0000830606020070AD507E02D4B20601A7899
:1028D00001321A7005E02C4201D02A4B00E02A4B4D
:1028E00023602A4908230B70C3E5012423421ED02C
:1028F0001D4802230370264B264D1A70264B274E87
:102900001D609D60264D1A61DD609A615E60254BF9
:102910000D251D70244DFF232B700B7011490A707B
:10292000224A1370224B9F221A70047013E05AB28D
:10293000002A04DA1B4A0D20107080220A7002223D
:10294000134204D018480478E4B204700A701022CC
:10295000134200D00A70F7BDF80500208006002061
:102960007806002098200740942007404806002061
:102970001406002024060020FC0500205408002036
:1029800082060020C80040008800400080200740E8
:102990003C0600208800080000F8FF1F1C060020ED
:1029A00040060020C0200740882007408C200740B8
:1029B0008420074010B501F04FF900221A4B002186
:1029C000D150981808324160C82AF7D1174A8020A0
:1029D0001468C00220431060180A154AC0B2107073
:1029E000180C144AC0B21070134A1B0E1370134A0D
:1029F000FF231370124A13481370134A13700122F5
:102A000002701248017012490A70124A1168994303
:102A10000B1C70210B4313600F4B802252041A6071
:102A20000E4B10221A7010BD00F8FF1F34800440B6
:102A30009C200740B0200740B4200740802007407A
:102A400088200740942007401020074000210740BD
:102A50008420074018E400E000E100E0082107407E
:102A600038B572B60B4C2568281C01F0CDFB172831
:102A700002D962B600200CE080231B06C3409D43B0
:102A8000256062B648235843034B1818002303609F
:102A9000436038BDE400002000FAFF1F10B5041C9D
:102AA0000E484821201A01F0FFFA172815D80C4BC0
:102AB0001B78002B07D00B4B1B78002B03D0201C5E
:102AC000FFF75EFC09E072B68022074B1206C24097
:102AD000101C1A681043186062B610BD00FAFF1F80
:102AE000820600208B060020E4000020F7B5144F7A
:102AF000061C3A680D1C0192124B1B78002B19D052
:102B00000220FFF711FC041E09D13B68019A9B1AB1
:102B1000AB4212D8002D11D000F06AF8ECE7011C8E
:102B200008310822301C02F067F8201CFFF7B6FFBE
:102B3000082004E00120404201E000E0281CFEBD26
:102B4000F40500208B060020034B00201B788342F5
:102B500001D0024B588870478B0600205408002093
:102B6000F7B5154F051C3A680E1C0192134B012056
:102B70001B78002B1CD0FFF7F1FB022807D93B681C
:102B8000019A9B1AB34215D800F032F8EEE7FFF72E
:102B900067FF041EF3D01426291C321C083002F0F3
:102BA0002BF801202680211CFFF724FC301C02E0BA
:102BB000404200E00020FEBDF40500208B0600200E
:102BC00038B5049D1C1C401AEB1A5843511A01F0E9
:102BD000B9FA001938BD08B5FDF7DCFFFDF752FF63
:102BE00000F006F8FAE708B501F0FCFF08BDFFFFAA
:102BF00010B50D4C2378002B15D10123237000F064
:102C000049FA002801D001F0F0F800F089FC002812
:102C100001D001F088F900F037FF002801D001F061
:102C200020FA0023237010BD8D060020F8B5061C85
:102C30000D1C171C0024301C391C01F079FA0929DD
:102C400001D8303100E03731C9B22955301C391C68
:102C500001F02AFA061E01D00134ECE72B19587056
:102C60002B1C5A1BA24206DA1A78295D19702A55C4
:102C70000133013CF5E7281CF8BDFFFF264B8022FD
:102C80001968D2000A431A60244A00231370244AA8
:102C90001370244A1370244A1370244A1370244B6F
:102CA0001B78032B09D0152B04D0002B08D1214A07
:102CB000214B04E01F4A214B01E0214A214B1A60BD
:102CC000214B1B78042B0BD0052B05D0012B0BD1EE
:102CD000D12292001D4B06E0D12292001C4B02E053
:102CE00091221C4B92001A601B4BC204D20E1A7028
:102CF000C0B2002258709A702C22DA70174BFF2253
:102D0000196891430A1C40210A431A60144B80221F
:102D100052011A607047C0463480044019070020F1
:102D200095060020200700201A07002094060020A6
:102D3000D60600201303000040A0044018C0044041
:102D40001302000004900440E800002044A0044066
:102D50001CC004400890044000A006400CE400E0C1
:102D600000E100E010B5124B132299789143032241
:102D700002400A43410701D510210A439A700F22ED
:102D80000B490240042A03D18A79402422438A71E4
:102D90005A7910218A43084200D00A435A719A791D
:102DA00010218A43840600D50A439A7110BDC0469B
:102DB00000A0064008B5124B1B685A051ED5114BE2
:102DC0001B78DBB2002B02D0FFF712FFF7E70E4AA9
:102DD0008021490111600D4A0D49D3700422FF3250
:102DE0000A600C490A600C4A13700C4A13700C4BB1
:102DF0001B68002B02D00B4A12781A7108BDC0461E
:102E0000348004409406002080E100E000A00640E9
:102E100040A0044044A0044019070020950600206B
:102E200090060020D706002038B5041C0B4B1D78F7
:102E3000EDB2002DFAD1201C0121FFF7B5F8291CB5
:102E4000201CFFF77FF80C225443054B054AE1583C
:102E50001C191160044B227A1A7038BD94060020A8
:102E6000604E00001C0700201807002010B5154A0E
:102E70001378984225D0144909684C0520D5042BB5
:102E800009D0052B04D0012B08D100210F4B04E001
:102E900000210F4B01E00F4B0021196004280BD0DB
:102EA000052805D001280BD1D1218900074B06E068
:102EB000D1218900064B02E09121064B890019605F
:102EC000107010BDE80000203480044044A004408D
:102ED0001CC004400890044010B5144A137898426E
:102EE00022D0134909684C051DD5032B09D0152B99
:102EF00004D0002B08D10F490B6005E000210E4BD8
:102F000001E00E4B00211960032809D0152804D0D8
:102F1000002808D10A49074B04E00949064B01E0A3
:102F20000849064B1960107010BDC046D606002037
:102F30003480044040A0044018C004400490044081
:102F4000130300001302000038B50E4B1A6800236B
:102F5000510514D50C4C1A2810D80C2343430B4AA6
:102F60000B4D9958D3181B7A216001212B70FFF764
:102F70001BF823682A781A72012300E02360181CCA
:102F800038BDC0463480044090060020604E0000EA
:102F9000D706002000207047F8B5214B071C1B689E
:102FA0005A053BD51F4B1B68002B02D01E4A1278D6
:102FB0001A711E4E002334783F220134A2425B4135
:102FC0005B421C401A4D2B78A3421CD1FEF78EFFAA
:102FD000402813DC174A13795BB2002BF2DA2B7806
:102FE000002101333F209842494149420B40124998
:102FF000C95CDBB2C9B2D1712B70E3E7FF28E1DD18
:10300000FFF7F6FDDEE70C4BFFB21F550B4B01221D
:103010001A70084BE4B2AC223470DA70F8BDC046C6
:10302000348004401C0700201807002020070020DF
:103030001A07002000A006409606002094060020F3
:1030400038B5041C4518AC4204D02078FFF7A4FF23
:103050000134F8E738BDFFFF08B5044B1B78002B9F
:1030600002D0FFF7C5FDF8E708BDC0469406002072
:10307000064B074A1B781078DBB2C0B2834201D3FB
:103080003F3000E00138C01A7047C04620070020DA
:103090001A070020054B1878054BC0B21B78DBB22D
:1030A000984200D24030C01A7047C046190700202D
:1030B0009506002010B5124B12491A780B78D2B23F
:1030C000DBB29A4219D001333F2400209C42404198
:1030D000404203400C48DCB2C05C0C700B49C0B2EB
:1030E000096800290BD09A4200D24032D31A1A2B19
:1030F00005DC074B1B780B7201E00120404210BD3C
:103100001907002095060020D80600209006002010
:10311000D70600200A4B1A780A4B1B78DBB29A427A
:103120000AD0013300223F219942524152421340BA
:10313000054AD05CC0B201E0012040427047C04661
:103140001907002095060020D8060020064B1A78A3
:10315000064BD2B21A70064B1B68002B02D0054AF0
:1031600012781A727047C046950600201907002091
:1031700090060020D706002030B5254A137999061D
:1031800012D52449D4790B78002001333F259D4284
:103190004041404203402048E4B20078834203D0DB
:1031A0001E48C454DBB20B70D178194CC9B24BB273
:1031B000002B1ADA23795BB2002B16DA184B194868
:1031C0001D780378DBB29D4202D16C23E3700CE0E2
:1031D000013300243F259D42644164422340124C48
:1031E000E45CDBB2E4B2D4710370402319420ED028
:1031F000117919420BD00D4B002119700C4B1B6833
:103200008B4202D00B49097819722C23D37030BD40
:1032100000A006401907002095060020D8060020CF
:10322000200700201A0700209606002094060020A0
:103230001C07002018070020164B80221968120175
:103240000A431A60144A00231370144A1449137075
:10325000144A1370144A1370144A1370144A1160FC
:10326000144AD12189001160134AC104C90EC0B2A9
:103270001170507093702C23D370104B104A196842
:103280000A408021C9010A431A600E4B8022920134
:103290001A607047348004409407002029070020FA
:1032A000130300009C07002095070020280700203A
:1032B0000CB0044010B0044000B006400CE400E044
:1032C000FF00FFFF00E100E010B5124B13229978D8
:1032D0009143032202400A43410701D510210A43CA
:1032E0009A700F220B490240042A03D18A794024A4
:1032F00022438A715A7910218A43084200D00A4336
:103300005A719A7910218A43840600D50A439A712A
:1033100010BDC04600B0064008B5124B1B681A0528
:103320001ED5114B1B78DBB2002B02D0FFF760FCDF
:10333000F7E70E4A8021890111600D4A0D49D370CB
:103340000422FF320A600C490A600C4A13700C4ACE
:1033500013700C4B1B68002B02D00B4A12781A71A9
:1033600008BDC046348004402807002080E100E00A
:1033700000B006400CB0044010B004409407002098
:1033800029070020240700205207002038B5041C1C
:103390000B4B1D78EDB2002DFAD1201C0121FEF758
:1033A00003FE291C201CFEF7CDFD0C225443054BC7
:1033B000054AE1581C191160044B227A1A7038BD75
:1033C00028070020604E0000980700209307002087
:1033D0007047704738B50E4B1A680023110514D595
:1033E0000C4C1A2810D80C2343430B4A0B4D995808
:1033F000D3181B7A216001212B70FEF7D5FD2368BD
:103400002A781A72012300E02360181C38BDC046D8
:103410003480044024070020604E00005207002042
:1034200000207047F8B5214B071C1B681A053BD5D7
:103430001F4B1B68002B02D01E4A12781A711E4EB9
:103440000023347827220134A2425B415B421C40B6
:103450001A4D2B78A3421CD1FEF748FD402813DCFF
:10346000174A13795BB2002BF2DA2B780021013373
:1034700027209842494149420B401249C95CDBB2BE
:10348000C9B2D1712B70E3E7FF28E1DDFFF7B0FB94
:10349000DEE70C4BFFB21F550B4B01221A70084B95
:1034A000E4B2AC223470DA70F8BDC0463480044017
:1034B00098070020930700209C0700209507002014
:1034C00000B006402A0700202807002038B5041C59
:1034D0004518AC4204D02078FFF7A4FF0134F8E788
:1034E00038BDFFFF08B5044B1B78002B02D0FFF757
:1034F0007FFBF8E708BDC04628070020064B074AB7
:103500001B781078DBB2C0B2834201D3273000E0D1
:103510000138C01A7047C0469C070020950700205C
:10352000054B1878054BC0B21B78DBB2984200D22D
:103530004030C01A7047C046940700202907002079
:1035400010B5124B12491A780B78D2B2DBB29A42FC
:1035500019D001333F2400209C42404140420340A7
:103560000C48DCB2C05C0C700B49C0B20968002981
:103570000BD09A4200D24032D31A1A2B05DC074BEB
:103580001B780B7201E00120404210BD940700201F
:10359000290700205307002024070020520700209D
:1035A0000A4B1A780A4B1B78DBB29A420AD00133D5
:1035B00000223F219942524152421340054AD05CB9
:1035C000C0B201E0012040427047C046940700208D
:1035D0002907002053070020064B1A78064BD2B269
:1035E0001A70064B1B68002B02D0054A12781A721B
:1035F0007047C046290700209407002024070020B8
:103600005207002030B5254A1379990612D524496E
:10361000D4790B78002001333F259D424041404240
:1036200003402048E4B20078834203D01E48C454CB
:10363000DBB20B70D178194CC9B24BB2002B1ADA3D
:1036400023795BB2002B16DA184B19481D780378E2
:10365000DBB29D4202D16C23E3700CE00133002405
:1036600027259D42644164422340124CE45CDBB256
:10367000E4B2D4710370402319420ED0117919427B
:103680000BD00D4B002119700C4B1B688B4202D0E4
:103690000B49097819722C23D37030BD00B0064055
:1036A0009407002029070020530700209C070020D2
:1036B000950700202A0700202807002098070020EF
:1036C00093070020204B8022196852010A431A6098
:1036D0001E4A002313701E4A13701E4A13701E4A9E
:1036E00013701E4A13701E4B1B78062B04D0072B39
:1036F00005D11C4A1C4B01E01A4A1C4B1A601C4B9A
:103700001B78082B05D0142B07D1D1229200194B1E
:1037100002E0D122184B92001A60184BC204D20E5C
:103720001A70C0B2002258709A702C22DA70144BB2
:10373000144A19680A408021C9030A431A60124BCF
:103740008022D2011A6070473480044010080020A3
:10375000A50700201808002011080020A407002059
:10376000E90000201303000008C0044010C004401A
:10377000EA00002014C004400CC0044000C0064011
:103780000CE400E0FFFF00FF00E100E010B5124B89
:10379000132299789143032202400A43410701D53D
:1037A00010210A439A700F220B490240042A03D1C8
:1037B0008A79402422438A715A7910218A43084227
:1037C00000D00A435A719A7910218A43840600D5A1
:1037D0000A439A7110BDC04600C0064008B5124B9E
:1037E0001B68DA041ED5114B1B78DBB2002B02D00C
:1037F000FFF7FEF9F7E70E4A8021C90111600D4A73
:103800000D49D3700422FF320A600C490A600C4A49
:1038100013700C4A13700C4B1B68002B02D00B4A20
:1038200012781A7108BDC04634800440A4070020F5
:1038300080E100E000C0064008C004400CC0044025
:1038400010080020A5070020A0070020CE070020B8
:1038500038B5041C0B4B1D78EDB2002DFAD1201C9D
:103860000121FEF7A1FB291C201CFEF76BFB0C229B
:103870005443054B054AE1581C191160044B227A48
:103880001A7038BDA4070020604E00001408002004
:103890000F08002010B5104A137898421AD00F492B
:1038A0000968CC0415D5082B04D0142B05D10021B0
:1038B0000B4B01E00B4B00211960082805D01428A0
:1038C00007D1D1218900064B02E0D121054B8900A7
:1038D0001960107010BDC046EA000020348004401A
:1038E00014C004400CC0044010B50F4A137898422D
:1038F00018D00E490968CC0413D5062B04D0072B29
:1039000005D100210A4B01E00A4B0021196006286D
:1039100004D0072805D10849054B01E00649054BAD
:103920001960107010BDC046E900002034800440CA
:1039300008C0044010C004401303000038B50E4B0B
:103940001A680023D10414D50C4C1A2810D80C2363
:1039500043430B4A0B4D9958D3181B7A2160012120
:103960002B70FEF721FB23682A781A72012300E0EE
:103970002360181C38BDC04634800440A0070020D6
:10398000604E0000CE07002000207047F8B5214BA4
:10399000071C1B68DA043BD51F4B1B68002B02D0A9
:1039A0001E4A12781A711E4E0023347827220134E1
:1039B000A2425B415B421C401A4D2B78A3421CD1B2
:1039C000FEF794FA402813DC174A13795BB2002BF8
:1039D000F2DA2B78002101332720984249414942ED
:1039E0000B401249C95CDBB2C9B2D1712B70E3E75D
:1039F000FF28E1DDFFF7FCF8DEE70C4BFFB21F55B7
:103A00000B4B01221A70084BE4B2AC223470DA700E
:103A1000F8BDC04634800440140800200F08002080
:103A2000180800201108002000C00640A60700204A
:103A3000A407002038B5041C4518AC4204D02078F7
:103A4000FFF7A4FF0134F8E738BDFFFF08B5044BCA
:103A50001B78002B02D0FFF7CBF8F8E708BDC04673
:103A6000A4070020064B074A1B781078DBB2C0B2CF
:103A7000834201D3273000E00138C01A7047C046A6
:103A80001808002011080020054B1878054BC0B21B
:103A90001B78DBB2984200D24030C01A7047C04653
:103AA00010080020A507002010B5124B12491A7803
:103AB0000B78D2B2DBB29A4219D001333F240020F6
:103AC0009C424041404203400C48DCB2C05C0C7058
:103AD0000B49C0B2096800290BD09A4200D240328B
:103AE000D31A1A2B05DC074B1B780B7201E001205F
:103AF000404210BD10080020A5070020CF0700207D
:103B0000A0070020CE0700200A4B1A780A4B1B782A
:103B1000DBB29A420AD0013300223F21994252413E
:103B200052421340054AD05CC0B201E0012040423D
:103B30007047C04610080020A5070020CF070020CE
:103B4000064B1A78064BD2B21A70064B1B68002B34
:103B500002D0054A12781A727047C046A5070020A5
:103B600010080020A0070020CE07002030B52E4A04
:103B70001379990624D52D49D4790B780020013387
:103B80003F259D424041404203402948E4B200782D
:103B9000834203D02748C454D8B208702649086825
:103BA00000280DD025490978C9B28B4201D35B1A90
:103BB00001E05B1A4033272B02DD214B1B78037198
:103BC000D178194CC9B24BB2002B1ADA23795BB207
:103BD000002B16DA1B4B19481D780378DBB29D4287
:103BE00002D16C23E3700CE00133002427259D42B1
:103BF000644164422340144CE45CDBB2E4B2D4710F
:103C00000370402319420ED0117919420BD00F4B8B
:103C1000002119700E4B1B688B4202D00D490978A8
:103C200019722C23D37030BD00C00640100800204C
:103C3000A5070020CF070020A007002011080020C2
:103C4000CE07002018080020A6070020A4070020A7
:103C5000140800200F0800201FB572B6154B702203
:103C60001A70154A41211170144A0F2111708022D7
:103C70001A701A7852B2002AFBDA114B186862B631
:103C8000104B984201D80A23584301AC211C0A2248
:103C9000FEF7CCFF0023E15C0B4A002905D0580059
:103CA0001018013341800A2BF5D101335B001370EA
:103CB0001FBDC0460000024007000240060002404F
:103CC000080002407F9698002A03002008B5036888
:103CD000C9B21B68984708BD08B50368C9B21B681C
:103CE000984708BD08B50368C9B21B68984708BD66
:103CF00008B50368C9B21B68984708BD08B5044BEE
:103D00004808C01800F0D0F9FEF7B8FF08BDC0465B
:103D1000C0C62D0010B5064B4808C018141C00F092
:103D2000C3F9FEF7ABFF201CFFF71CF810BDC0461F
:103D3000C0C62D0008B5FFF73DF808BD08B5081C42
:103D4000FFF772F808BD08B5081CFFF7C5F808BDF5
:103D500008B5081CFFF78AF808BD08B5081CFFF76E
:103D6000F3F8431E9841C0B208BD08B5081CFFF720
:103D700011F9431E9841C0B208BD08B5FFF78AF992
:103D800008BD08B5FFF7C6F908BD08B5FFF792F9F9
:103D900008BD08B5FFF760F908BD08B5FFF7D6F90B
:103DA00008BD08B5FFF764F908BD08B5081CFFF7A2
:103DB000F3F8012008BD08B5081CFFF7EDF8012055
:103DC00008BD10B5081C141C111CFFF739F9201C84
:103DD00010BD38B5081C0D1C00F0CEFF041C211CC2
:103DE000281CFFF72DF9201C38BD7047044B00221A
:103DF0001A711A73FA21034A890099601A60704790
:103E00001C0800201850000008B50368C9B21B68E0
:103E1000984708BD08B50368C9B21B68984708BD34
:103E200008B50368C9B21B68984708BD08B50368A0
:103E3000C9B21B68984708BD08B5044B4808C018AC
:103E400000F032F9FFF7F8F908BDC04660E316004C
:103E500010B5064B4808C018141C00F025F9FFF7F0
:103E6000EBF9201CFFF730FA10BDC04660E31600E6
:103E700008B5FFF751FA08BD08B5081CFFF786FA28
:103E800008BD08B5081CFFF7A4FA08BD08B5081C52
:103E9000FFF79EFA08BD08B5081CFFF79BFA431E02
:103EA0009841C0B208BD08B5081CFFF7B9FA431E17
:103EB0009841C0B208BD08B5FFF732FB08BD08B590
:103EC000FFF76EFB08BD08B5FFF73AFB08BD08B564
:103ED000FFF708FB08BD08B5FFF77EFB08BD08B576
:103EE000FFF70CFB08BD08B5081CFFF79BFA012083
:103EF00008BD08B5081CFFF795FA012008BD10B5EC
:103F0000081C141C111CFFF7E1FA201C10BD38B569
:103F1000081C0D1C00F030FF041C211C281CFFF79E
:103F2000D5FA201C38BD7047044B00221A711A7351
:103F3000FA21034A890099601A6070472C08002012
:103F40007850000008B50368C9B21B68984708BDDF
:103F500008B50368C9B21B68984708BD08B503686F
:103F6000C9B21B68984708BD08B50368C9B21B6889
:103F7000984708BD08B5044B4808C01800F094F8ED
:103F8000FFF7A0FB08BDC04660E3160010B5064B66
:103F90004808C018141C00F087F8FFF793FB201C9A
:103FA000FFF7F4FB10BDC04660E3160008B5FFF74D
:103FB00015FC08BD08B5081CFFF74AFC08BD08B58C
:103FC000081CFFF791FC08BD08B5081CFFF762FC50
:103FD00008BD08B5081CFFF7B1FC431E9841C0B2EC
:103FE00008BD08B5081CFFF7CFFC431E9841C0B2BE
:103FF00008BD08B5FFF748FD08BD08B5FFF784FD0B
:1040000008BD08B5FFF750FD08BD08B5FFF71EFD58
:1040100008BD08B5FFF794FD08BD08B5FFF722FD00
:1040200008BD08B5081CFFF7B1FC012008BD08B5A4
:10403000081CFFF7ABFC012008BD10B5081C141CC0
:10404000111CFFF7F7FC201C10BD38B5081C0D1C17
:1040500000F092FE041C211C281CFFF7EBFC201C26
:1040600038BD7047044B00221A711A73FA21034AB3
:10407000890099601A6070473C080020D850000001
:1040800002B4714649084900095C49008E4402BCEB
:104090007047C04603B47146490840004900095AB8
:1040A00049008E4403BC7047002934D0012300220C
:1040B00010B488422CD301242407A14204D28142A7
:1040C00002D209011B01F8E7E400A14204D28142B7
:1040D00002D249005B00F8E7884201D3401A1A4334
:1040E0004C08A04202D3001B5C0822438C08A0426B
:1040F00002D3001B9C082243CC08A04202D3001B21
:10410000DC082243002803D01B0901D00909E3E79A
:10411000101C10BC7047002801D00020C04307B419
:10412000024802A14018029003BDC046D900000019
:104130000029F0D003B5FFF7B9FF0EBC4243891A3E
:104140001847C046002941D010B4041C4C40A44676
:1041500001230022002900D54942002800D5404211
:1041600088422CD301242407A14204D2814202D2E6
:1041700009011B01F8E7E400A14204D2814202D206
:1041800049005B00F8E7884201D3401A1A434C0803
:10419000A04202D3001B5C0822438C08A04202D339
:1041A000001B9C082243CC08A04202D3001BDC0861
:1041B0002243002803D01B0901D00909E3E7101CA2
:1041C0006446002C00D5404210BC7047002806D041
:1041D00003DB0020C043400801E08020000607B454
:1041E000024802A14018029003BDC0461900000019
:1041F0000029EBD003B5FFF7A7FF0EBC4243891A95
:104200001847C0467047C0461C2101231B04984232
:1042100001D3000C10391B0A984201D3000A083957
:104220001B09984201D30009043902A2105C40180E
:104230007047C046040302020101010100000000B2
:1042400000000000F8B543024400C50F4E024800CC
:10425000240E2A1C9B09000EC90FB6098D425BD0A3
:10426000221A002A00DC89E000281DD1002E00D08F
:1042700075E0580704D00F221A40042A00D00433F6
:104280008021C90419402A1C00293AD00134FF2C8E
:1042900000D17FE09B015B0A5B02E4B2E405580AAF
:1042A000D20720431043F8BDFF2CE2D08021C9047F
:1042B0000E431B2A00DD2DE1311C2020D140821A43
:1042C0009640721E96410E439B1B5801D1D59B010F
:1042D0009F09381CFFF798FF421F974094425BDC10
:1042E000141B1F231B1B3A1C9F40611C3B1CCA4014
:1042F0005F1EBB4113430024BBE7131EB9D100234B
:104300000022DB08FF2C04D1002B43D08020C00307
:1043100003435B025B0ABFE7211A002940DD002846
:1043200023D0FF2CA5D08020C00406431B2900DD2C
:10433000EEE0301C2027C840791A8E40711E8E4155
:1043400006439B19590100D493E70134FF2C55D043
:10435000714901221A400B405B08134389E7013A77
:10436000002AB1D0FF2CA4D183E7002E00D180E732
:1043700001390029E5D0FF2CD8D17AE7002A1BD1DA
:10438000621CD2B2012A4BDD9F1B7A0123D5F71A9A
:104390000D1C9EE700237FE75F4BA41A3B4068E7B4
:1043A000002946D1611CC8B2012829DDFF2924D08B
:1043B000F3185B080C1C5CE7002C13D0FF2818D006
:1043C0008024E404524223431B2A4DDD0123F31AC7
:1043D000041C0D1C79E7002F00D07AE7002300228F
:1043E00000248EE7002B3BD0D243002AEFD0FF28D9
:1043F000EAD1331CFF240D1C3BE7FF24002380E798
:10440000002C5CD1002B00D180E0002E00D130E7E1
:104410009B19580100D42CE73F4A0124134028E798
:10442000002C15D1002B40D1002E63D0331C0D1C65
:104430001FE7002C21D1002B54D0C943002904D000
:10444000FF284CD01B2958DD01239B19041C79E758
:10445000002B19D1002E48D0331C0D1CFF2408E777
:10446000331C041C0D1C04E71C1C2025D440AA1A74
:1044700093405A1E93412343A9E7FF282FD080245D
:10448000E40449422343DDE7FF24002E00D1F0E697
:104490008022DB08D203134204D0F608164201D171
:1044A000331C0D1CDB00FF24E3E6002E00D1E0E608
:1044B0009A1B500100D420E7F31A0D1CD9E6002BFB
:1044C0000DD0FF24002E00D1D3E68022DB08D203DA
:1044D0001342E7D0F6081642E4D1331CE2E7331C5E
:1044E000FF24C6E6331C041CC3E6802300229B0481
:1044F000FF2406E7231C002203E71C1C2027CC40D6
:10450000791A8B40591E8B4123439EE7331CB0E63A
:10451000012616E70126D7E6FFFFFFFBF0B55F4651
:1045200056464D464446F0B446024500C00F85B09D
:104530000F1C760A2D0E804641D0FF2D26D08024F8
:10454000240400212643F6007F3D89468B46F90F5F
:104550007C027800640A000E00918A463CD0FF2855
:1045600034D080231B041C430023E4007F380193D4
:10457000009F4346019A7B4049469C4611430F29C0
:1045800000D971E0764F89007F58BF46002E3ED19A
:104590000822022391469B46D9E75A46341CC2465C
:1045A00001920199022937D0032900D1CFE00129D6
:1045B00000D0ABE053460B400022002632E0002E34
:1045C00019D10421012289469346C0E7221C531EBB
:1045D0009A4102320192CBE701270197002CC7D004
:1045E000201CFFF711FE431F9C4076235B420021F5
:1045F000181A0191BCE7301CFFF706FE7625431F11
:104600009E406D4200232D1A99469B469FE70C233E
:10461000032199468B469AE7D446012367463B40DF
:10462000FF2200267602D205700ADB0710431843EA
:1046300005B03CBC90469946A246AB46F0BD8026EC
:104640000023F603FF22EDE700220026EAE78020A0
:10465000C00306423BD0044239D1061C26437602F1
:10466000760A009BFF22DDE7281A03907601640199
:10467000A64239D3361B1A2201230120311C5B00CC
:104680007600002901DBB44201D8361B0343013A0E
:10469000002AF3DC741EA641341C1C43039A7F32AB
:1046A000002A27DD630704D00F232340042B00D00A
:1046B0000434270103D52B4B039A1C408032FE2A79
:1046C0000BDD012361460B40FF220026AAE70643CB
:1046D0007602760A4346FF22A4E7A4010123674637
:1046E000660AD2B23B409DE7039F1B22013F03971E
:1046F0000023C2E77E23039F5B42DB1B1B2B07DDEE
:10470000012361460B40002200268BE7D446C5E713
:10471000221CDA40039B9E339C40231C5C1EA34159
:1047200013435A0704D00F221A40042A00D004333E
:104730005F0105D5012361460B400122002671E788
:104740009E01624601231340760A00226AE7802612
:10475000F60326437602760A5346FF2262E7C046F6
:1047600030510000FFFFFFF7F0B55F4656464D465B
:104770004446F0B44402460083B00F1C640A360E6F
:10478000C50F002E41D0FF2E22D080231B04002015
:104790001C43E4007F3E82468046391C4B007F026A
:1047A000C90F7F0A1B0E8B463BD0FF2B34D08022D3
:1047B00012041743FF007F3B00215A466A400192D2
:1047C00052460A430F2A63D87A4892008258974685
:1047D000002C3FD10822022392469846DDE701953E
:1047E000404602282AD1019A01251540FF230024C2
:1047F0006402DB05600AED071843284303B03CBCA4
:1048000090469946A246AB46F0BD002C27D1042025
:10481000012282469046C0E7391C4A1E914102316E
:10482000CBE70121002FC8D0381CFFF7EDFC431F58
:104830009F4076235B421B1A0021BEE7032800D16C
:10484000AEE001284FD1019842461040C5B2002386
:104850000024CDE70C2303209A4680469DE7201CC8
:10486000FFF7D2FC7626431F9C4076420023361A7F
:104870009A46984691E780240025E403FF23B7E792
:104880005B463C1C01938846AAE73C1C8846A7E788
:10489000250C24043A0C240C3F04F6183F0C211C70
:1048A000231C794353436F435543FB180A0C9B1851
:1048B000B1469F4202D980225202AD1809041A045F
:1048C000090C521894011B0C611E8C41920EED18BC
:1048D0001443AD012C43230105D5012263080120B7
:1048E000144081441C434B467F33002B2DDD600771
:1048F00004D00F222240042A00D00434220103D520
:104900002D4B1C404B468033FE2B17DD019B0125B0
:104910001D400024FF236BE78020C003044208D021
:10492000074206D1041C3C436402640A5D46FF232F
:104930005EE704436402640AFF2359E70198A40177
:104940000125640ADBB2054052E77E235B424A46FA
:104950009B1A1B2B05DD019B01251D400024002314
:1049600046E7221CDA404B469E339C40231C5C1ECB
:10497000A3411343580704D00F221A40042A00D041
:1049800004335A0105D5019B01251D400024012354
:104990002EE701989C010125640A0540002327E7C2
:1049A0008027FF03019B3C43640201251D40640AEC
:1049B000FF231DE770510000FFFFFFF74302590A74
:1049C0004300C20F1B0E00207E2B0DDD9D2B0CDC47
:1049D000802000040143952B0ADC9620C31AD9409D
:1049E0004842002A00D1081C7047034BD018FBE74F
:1049F000963B9940F4E7C046FFFFFF7F70B5041E69
:104A00003CD0C60F00D04442201CFFF7FDFB9E2384
:104A1000251C1B1A962B0CDC083884406402640A9F
:104A2000DBB2321C6402DB05600AD2071843104374
:104A300070BD992B0ADD0522121A211CD1400A1CD7
:104A4000011C1B318D40691E8D411543052801DD78
:104A5000421F9540164C2C406A0704D00F22154087
:104A6000042D00D0043461010CD59F23181AFF28AF
:104A70001AD0A401640AC3B2321CD3E70022002377
:104A80000024CFE7E408FF2B04D06402640ADBB201
:104A9000321CC7E7002C04D08020C003044364020A
:104AA000640A321CFF23BDE7321CFF230024B9E750
:104AB000FFFFFFFB10B5041E33D0FFF7A5FB9E23BD
:104AC0001B1A962B09DC083884406402640ADBB2A6
:104AD0006402DB05600A184310BD992B0ADD05222C
:104AE000121A211CD1400A1C011C1B318C40611E72
:104AF0008C411443052801DD421F9440144A224092
:104B0000610704D00F210C40042C00D00432510165
:104B10000AD59F23181AFF2816D09401640AC3B23D
:104B2000D6E700230024D3E7D208FF2B03D054029A
:104B3000640ADBB2CCE7002A06D08024E4031443E5
:104B40006402640AFF23C3E7FF230024C0E7C046D2
:104B5000FFFFFFFB08B5031C081C191C00F002F83E
:104B600008BDFFFF38B5051C05480C1C131C0028A8
:104B700004D00220291C221C00E000BF38BDC04622
:104B80000000000070B50E4B0E4D0024ED1AAD1064
:104B90001E1CAC4204D0A300F35898470134F8E738
:104BA00000F038FB084B094D0024ED1AAD101E1C17
:104BB000AC4204D0A300F35898470134F8E770BD25
:104BC0002052000020520000205200003C52000001
:104BD00008B5034B011C186800F068F808BDC04612
:104BE000A003002008B5034B011C186800F016F85C
:104BF00008BDC046A003002010B50023934203D097
:104C0000CC5CC4540133F9E710BD031C82189342F5
:104C100002D019700133FAE77047FFFF30B5002961
:104C200040D004390B68002B00DAC9181E4A1368FB
:104C3000141C002B02D14B60116033E099420FD25B
:104C400008680A189A4205D113685268C0180860AB
:104C50004A6000E04B60216024E08A4203D8131CC4
:104C60005A68002AF9D11D685C198C420BD1096879
:104C7000691858181960904214D1146852680919BB
:104C800019605A600EE08C4202D90C23036009E0DF
:104C900008680C18944203D114685268001908601F
:104CA0004A60596030BDC0465008002070B50323EB
:104CB000CD1C9D430835061C0C2D01D20C2501E0AE
:104CC000002D3FDB8D423DD3204B1C681A1C211C5C
:104CD000002913D00868431B0DD40B2B02D90B609D
:104CE000CC181EE08C4202D1636813601AE0486859
:104CF00060600C1C16E00C1C4968E9E7144C206845
:104D0000002803D1301C00F025F82060301C291C3D
:104D100000F020F8431C15D0C41C03239C4384429C
:104D20000AD12560201C0B300722231D9043C31A93
:104D30000BD05A42E25008E0211A301C00F00AF869
:104D40000130EED10C233360002070BD50080020EC
:104D50004C08002038B5074C0023051C081C2360B4
:104D6000FDF7BAF8431C03D12368002B00D02B6059
:104D700038BDC046600800200023C25C0133002A11
:104D8000FBD1581E704730B5031C002A07D00C78A1
:104D900001335D1E013A2C700131002CF5D19A18B7
:104DA000934203D0002119700133F9E730BDFFFFB2
:104DB0000000000000000000710400008D040000ED
:104DC0007D040000E91E0000E91E00000000000054
:104DD00000000000000000006D0E0000150F000034
:104DE000B50E0000C90E0000F10E0000B10E00006B
:104DF0004144584C333435000000000000000000EE
:104E000081040000A10400007D040000F9150000E9
:104E100095130000000000000100010001000100E6
:104E2000010001000100000000000000010001007D
:104E3000010000000000010001000100010000006D
:104E4000050E08090D0C06070F0B0044171A1BFF6F
:104E50008023037003785BB2002BFBDA7047FFFFFF
:104E6000420000F840A0044001000000420000F8A9
:104E700044A0044002000000C00000F800C004404C
:104E800001000000000000F804900440020000004F
:104E9000000000F80890044004000000C00000F882
:104EA0001CC0044080000000C00000F810C0044096
:104EB00010000000C00000F808C00440040000001A
:104EC000C00000F80CC0044008000000800000F89A
:104ED0000CB0044008000000800000F810B004404E
:104EE00010000000800000F818B0044040000000EE
:104EF000800000F81CB0044080000000800000F832
:104F000014B0044020000000C00000F804C00440B9
:104F100002000000800000F800B004400100000022
:104F2000400000F800A0044001000000400000F82C
:104F300004A0044002000000400000F80CA004405F
:104F400008000000400000F808A004400400000031
:104F5000C00000F814C0044020000000C00000F8A9
:104F600018C0044040000000800000F804B0044075
:104F700002000000800000F808B0044004000000B7
:104F8000020100F850D0044010000000020100F8B7
:104F900054D0044020000000030100F878D0044001
:104FA00040000000151915191D15FFFF0001000034
:104FB000EB0000201200000000020000140100209D
:104FC00099000000000300002603002000000000FC
:104FD00001030904FE000020000000000203090490
:104FE0001003002000000000030309042A0300202E
:104FF0000000000004030904AE01002000000000CE
:10500000000000000000000000000000FFFFFFFFA4
:105010000000000000000000AB3D0000C33D0000A8
:105020007B3D00008B3D0000833D0000933D000070
:10503000FD3C0000153D0000353D00003D3D0000F9
:10504000473D0000513D00005B3D00006B3D00000E
:105050009B3D0000A33D0000CD3C0000D93C00007A
:10506000E53C0000F13C0000D33D0000B73D0000EE
:105070000000000000000000E73E0000FF3E0000CE
:10508000B73E0000C73E0000BF3E0000CF3E00001C
:10509000393E0000513E0000713E0000793E0000A4
:1050A000833E00008D3E0000973E0000A73E0000BA
:1050B000D73E0000DF3E0000093E0000153E000024
:1050C000213E00002D3E00000F3F0000F33E000097
:1050D0000000000000000000234000003B400000F2
:1050E000F33F000003400000FB3F00000B400000C6
:1050F000753F00008D3F0000AD3F0000B53F000050
:10510000BF3F0000C93F0000D33F0000E33F000065
:10511000134000001B400000453F0000513F0000CD
:105120005D3F0000693F00004B4000002F40000041
:10513000684600001A46000048460000A2450000EC
:10514000484600003E46000048460000A2450000D8
:105150001A4600001A4600003E460000A245000024
:105160009A4500009A4500009A4500004E4600000E
:10517000904800008A4800008A48000080480000EB
:10518000E0470000E047000076480000804800004B
:10519000E047000076480000E0470000804800003B
:1051A000DE470000DE470000DE470000184900002F
:1051B0004300FFFF000000000000000000000000AE
:1051C00000000000000000000000000000000000DF
:1051D00000000000000000000000000000000000CF
:1051E00000000000000000000000000000000000BF
:1051F00000000000000000000000000000000000AF
:10520000000000000000000000000000000000009E
:1052100000000000F8B5C046F8BC08BC9E467047C8
:1052200039040000F10C000039130000151A0000C9
:0C523000ED3D0000293F0000654000003B
:10523C00000000000A0000003C000100C800282308
:10524C0026020112FFFF0000130A0400640800206C
:10525C0008000000FFFFFFFF01070812010002FF1A
:10526C00FFFF085E048E0214010102030100160305
:10527C00A9C24D006900630072006F0073006F00DB
:10528C006600740009029900040100A0FA090400E8
:10529C000002FF5D010011210001012581140000B5
:1052AC000000130208000007058103200004070515
:1052BC0002032000080904010004FF5D03001B2108
:1052CC00000101018340010420168500000000004C
:1052DC0000160500000000000007058303200002F3
:1052EC00070504032000040705850320004007057B
:1052FC0005032000100904020001FF5D02000921D2
:10530C00000101228607000705860320001009040E
:10531C00030000FFFD130406410001010300B2036A
:10532C0058000000620000006F00000078000000D0
:10533C002000000053000000650000006300000026
:10534C00750000007200000069000000740000008D
:10535C0079000000200000004D00000065000000F6
:10536C0074000000680000006F0000006400000082
:10537C0020000000330000002C0000002000000082
:10538C005600000065000000720000007300000071
:10539C00690000006F0000006E000000200000009B
:1053AC00310000002E000000300000003000000032
:1053BC002C00000020000000A900000020000000CC
:1053CC00320000003000000030000000350000000A
:1053DC00200000004D000000690000006300000088
:1053EC00720000006F000000730000006F000000EE
:1053FC006600000074000000200000004300000064
:10540C006F00000072000000700000006F000000D0
:10541C0072000000610000007400000069000000D0
:10542C006F0000006E0000002E0000002000000045
:10543C00410000006C0000006C0000002000000027
:10544C0072000000690000006700000068000000A6
:10545C0074000000730000002000000072000000C7
:10546C006500000073000000650000007200000081
:10547C007600000065000000640000002E000000B3
:10548C00160343006F006E00740072006F006C0016
:10549C006C0065007200040309040C03000000009A
:1054AC0000000000000000000000000000000000F0
:1054BC0000000000B4510000D4510000F451000071
:1054CC0000000000000000000000000000000000D0
:1054DC00B0510000000000000000000000000000BF
:1054EC0000000000000000000000000000000000B0
:1054FC0000000000000000000000000000000000A0
:10550C00000000000000000000000000000000008F
:04551C004003002028
:00000001FF
